{
  "address": "0xE1b8A9e8F5492C5242DE5c6A59C5E7ff1145891a",
  "abi": [
    {
      "inputs": [],
      "stateMutability": "nonpayable",
      "type": "constructor"
    },
    {
      "anonymous": false,
      "inputs": [
        {
          "indexed": true,
          "internalType": "address",
          "name": "owner",
          "type": "address"
        },
        {
          "indexed": true,
          "internalType": "address",
          "name": "approved",
          "type": "address"
        },
        {
          "indexed": true,
          "internalType": "uint256",
          "name": "tokenId",
          "type": "uint256"
        }
      ],
      "name": "Approval",
      "type": "event"
    },
    {
      "anonymous": false,
      "inputs": [
        {
          "indexed": true,
          "internalType": "address",
          "name": "owner",
          "type": "address"
        },
        {
          "indexed": true,
          "internalType": "address",
          "name": "operator",
          "type": "address"
        },
        {
          "indexed": false,
          "internalType": "bool",
          "name": "approved",
          "type": "bool"
        }
      ],
      "name": "ApprovalForAll",
      "type": "event"
    },
    {
      "anonymous": false,
      "inputs": [
        {
          "indexed": true,
          "internalType": "uint256",
          "name": "eventId",
          "type": "uint256"
        },
        {
          "indexed": false,
          "internalType": "uint256[]",
          "name": "tokenIds",
          "type": "uint256[]"
        },
        {
          "indexed": true,
          "internalType": "address",
          "name": "issuer",
          "type": "address"
        }
      ],
      "name": "TokensMinted",
      "type": "event"
    },
    {
      "anonymous": false,
      "inputs": [
        {
          "indexed": true,
          "internalType": "address",
          "name": "from",
          "type": "address"
        },
        {
          "indexed": true,
          "internalType": "address",
          "name": "to",
          "type": "address"
        },
        {
          "indexed": true,
          "internalType": "uint256",
          "name": "tokenId",
          "type": "uint256"
        }
      ],
      "name": "Transfer",
      "type": "event"
    },
    {
      "inputs": [
        {
          "internalType": "address",
          "name": "to",
          "type": "address"
        },
        {
          "internalType": "uint256",
          "name": "tokenId",
          "type": "uint256"
        }
      ],
      "name": "approve",
      "outputs": [],
      "stateMutability": "nonpayable",
      "type": "function"
    },
    {
      "inputs": [
        {
          "internalType": "address",
          "name": "owner",
          "type": "address"
        }
      ],
      "name": "balanceOf",
      "outputs": [
        {
          "internalType": "uint256",
          "name": "",
          "type": "uint256"
        }
      ],
      "stateMutability": "view",
      "type": "function"
    },
    {
      "inputs": [
        {
          "internalType": "string",
          "name": "tokenUri",
          "type": "string"
        },
        {
          "internalType": "uint256",
          "name": "quantity",
          "type": "uint256"
        },
        {
          "internalType": "uint256",
          "name": "value",
          "type": "uint256"
        },
        {
          "internalType": "bool",
          "name": "nonTransferable",
          "type": "bool"
        }
      ],
      "name": "bulkMintERC721",
      "outputs": [],
      "stateMutability": "nonpayable",
      "type": "function"
    },
    {
      "inputs": [
        {
          "internalType": "uint256",
          "name": "tokenId",
          "type": "uint256"
        }
      ],
      "name": "getApproved",
      "outputs": [
        {
          "internalType": "address",
          "name": "",
          "type": "address"
        }
      ],
      "stateMutability": "view",
      "type": "function"
    },
    {
      "inputs": [
        {
          "internalType": "address",
          "name": "owner",
          "type": "address"
        },
        {
          "internalType": "address",
          "name": "operator",
          "type": "address"
        }
      ],
      "name": "isApprovedForAll",
      "outputs": [
        {
          "internalType": "bool",
          "name": "",
          "type": "bool"
        }
      ],
      "stateMutability": "view",
      "type": "function"
    },
    {
      "inputs": [],
      "name": "name",
      "outputs": [
        {
          "internalType": "string",
          "name": "",
          "type": "string"
        }
      ],
      "stateMutability": "view",
      "type": "function"
    },
    {
      "inputs": [],
      "name": "owner",
      "outputs": [
        {
          "internalType": "address payable",
          "name": "",
          "type": "address"
        }
      ],
      "stateMutability": "view",
      "type": "function"
    },
    {
      "inputs": [
        {
          "internalType": "uint256",
          "name": "tokenId",
          "type": "uint256"
        }
      ],
      "name": "ownerOf",
      "outputs": [
        {
          "internalType": "address",
          "name": "",
          "type": "address"
        }
      ],
      "stateMutability": "view",
      "type": "function"
    },
    {
      "inputs": [
        {
          "internalType": "address",
          "name": "from",
          "type": "address"
        },
        {
          "internalType": "address",
          "name": "to",
          "type": "address"
        },
        {
          "internalType": "uint256",
          "name": "tokenId",
          "type": "uint256"
        }
      ],
      "name": "safeTransferFrom",
      "outputs": [],
      "stateMutability": "nonpayable",
      "type": "function"
    },
    {
      "inputs": [
        {
          "internalType": "address",
          "name": "from",
          "type": "address"
        },
        {
          "internalType": "address",
          "name": "to",
          "type": "address"
        },
        {
          "internalType": "uint256",
          "name": "tokenId",
          "type": "uint256"
        },
        {
          "internalType": "bytes",
          "name": "data",
          "type": "bytes"
        }
      ],
      "name": "safeTransferFrom",
      "outputs": [],
      "stateMutability": "nonpayable",
      "type": "function"
    },
    {
      "inputs": [
        {
          "internalType": "address",
          "name": "operator",
          "type": "address"
        },
        {
          "internalType": "bool",
          "name": "approved",
          "type": "bool"
        }
      ],
      "name": "setApprovalForAll",
      "outputs": [],
      "stateMutability": "nonpayable",
      "type": "function"
    },
    {
      "inputs": [
        {
          "internalType": "bytes4",
          "name": "interfaceId",
          "type": "bytes4"
        }
      ],
      "name": "supportsInterface",
      "outputs": [
        {
          "internalType": "bool",
          "name": "",
          "type": "bool"
        }
      ],
      "stateMutability": "view",
      "type": "function"
    },
    {
      "inputs": [],
      "name": "symbol",
      "outputs": [
        {
          "internalType": "string",
          "name": "",
          "type": "string"
        }
      ],
      "stateMutability": "view",
      "type": "function"
    },
    {
      "inputs": [
        {
          "internalType": "uint256",
          "name": "tokenId",
          "type": "uint256"
        }
      ],
      "name": "tokenURI",
      "outputs": [
        {
          "internalType": "string",
          "name": "",
          "type": "string"
        }
      ],
      "stateMutability": "view",
      "type": "function"
    },
    {
      "inputs": [
        {
          "internalType": "address",
          "name": "from",
          "type": "address"
        },
        {
          "internalType": "address",
          "name": "to",
          "type": "address"
        },
        {
          "internalType": "uint256",
          "name": "tokenId",
          "type": "uint256"
        }
      ],
      "name": "transferFrom",
      "outputs": [],
      "stateMutability": "nonpayable",
      "type": "function"
    },
    {
      "inputs": [
        {
          "internalType": "address",
          "name": "from",
          "type": "address"
        },
        {
          "internalType": "address",
          "name": "to",
          "type": "address"
        },
        {
          "internalType": "uint256",
          "name": "tokenId",
          "type": "uint256"
        },
        {
          "internalType": "string",
          "name": "tokenURI",
          "type": "string"
        },
        {
          "internalType": "uint256",
          "name": "value",
          "type": "uint256"
        }
      ],
      "name": "transferToken",
      "outputs": [],
      "stateMutability": "nonpayable",
      "type": "function"
    }
  ],
  "transactionHash": "0xdd4c6ac797d7c61f307c36f9fabf983d1207ebc546f8370245b2cfc7f6ff67e9",
  "args": [],
  "numDeployments": 2,
  "solcInputHash": "f187978e8a4b5dd8edb0c9e6291dda3b",
  "bytecode": "0x60806040523480156200001157600080fd5b506040518060400160405280600e81526020017f54727573746966696564546573740000000000000000000000000000000000008152506040518060400160405280600381526020017f544654000000000000000000000000000000000000000000000000000000000081525081600090805190602001906200009692919062000101565b508060019080519060200190620000af92919062000101565b505050600160088190555033600960006101000a81548173ffffffffffffffffffffffffffffffffffffffff021916908373ffffffffffffffffffffffffffffffffffffffff16021790555062000216565b8280546200010f90620001b1565b90600052602060002090601f0160209004810192826200013357600085556200017f565b82601f106200014e57805160ff19168380011785556200017f565b828001600101855582156200017f579182015b828111156200017e57825182559160200191906001019062000161565b5b5090506200018e919062000192565b5090565b5b80821115620001ad57600081600090555060010162000193565b5090565b60006002820490506001821680620001ca57607f821691505b60208210811415620001e157620001e0620001e7565b5b50919050565b7f4e487b7100000000000000000000000000000000000000000000000000000000600052602260045260246000fd5b61346f80620002266000396000f3fe608060405234801561001057600080fd5b50600436106101005760003560e01c806370a0823111610097578063a22cb46511610066578063a22cb465146102ab578063b88d4fde146102c7578063c87b56dd146102e3578063e985e9c51461031357610100565b806370a082311461022357806380574834146102535780638da5cb5b1461026f57806395d89b411461028d57610100565b80631ba7ddd2116100d35780631ba7ddd21461019f57806323b872dd146101bb57806342842e0e146101d75780636352211e146101f357610100565b806301ffc9a71461010557806306fdde0314610135578063081812fc14610153578063095ea7b314610183575b600080fd5b61011f600480360381019061011a919061248c565b610343565b60405161012c9190612a29565b60405180910390f35b61013d610425565b60405161014a9190612a44565b60405180910390f35b61016d6004803603810190610168919061255e565b6104b7565b60405161017a9190612985565b60405180910390f35b61019d60048036038101906101989190612450565b6104fd565b005b6101b960048036038101906101b491906124de565b610615565b005b6101d560048036038101906101d091906122b8565b610938565b005b6101f160048036038101906101ec91906122b8565b610998565b005b61020d6004803603810190610208919061255e565b6109b8565b60405161021a9190612985565b60405180910390f35b61023d60048036038101906102389190612253565b610a3f565b60405161024a9190612ca6565b60405180910390f35b61026d60048036038101906102689190612382565b610af7565b005b610277610c57565b60405161028491906129a0565b60405180910390f35b610295610c7d565b6040516102a29190612a44565b60405180910390f35b6102c560048036038101906102c09190612414565b610d0f565b005b6102e160048036038101906102dc9190612307565b610d25565b005b6102fd60048036038101906102f8919061255e565b610d87565b60405161030a9190612a44565b60405180910390f35b61032d6004803603810190610328919061227c565b610e9a565b60405161033a9190612a29565b60405180910390f35b60007f80ac58cd000000000000000000000000000000000000000000000000000000007bffffffffffffffffffffffffffffffffffffffffffffffffffffffff1916827bffffffffffffffffffffffffffffffffffffffffffffffffffffffff1916148061040e57507f5b5e139f000000000000000000000000000000000000000000000000000000007bffffffffffffffffffffffffffffffffffffffffffffffffffffffff1916827bffffffffffffffffffffffffffffffffffffffffffffffffffffffff1916145b8061041e575061041d82610f2e565b5b9050919050565b60606000805461043490612e5b565b80601f016020809104026020016040519081016040528092919081815260200182805461046090612e5b565b80156104ad5780601f10610482576101008083540402835291602001916104ad565b820191906000526020600020905b81548152906001019060200180831161049057829003601f168201915b5050505050905090565b60006104c282610f98565b6004600083815260200190815260200160002060009054906101000a900473ffffffffffffffffffffffffffffffffffffffff169050919050565b6000610508826109b8565b90508073ffffffffffffffffffffffffffffffffffffffff168373ffffffffffffffffffffffffffffffffffffffff161415610579576040517f08c379a000000000000000000000000000000000000000000000000000000000815260040161057090612c26565b60405180910390fd5b8073ffffffffffffffffffffffffffffffffffffffff16610598610fe3565b73ffffffffffffffffffffffffffffffffffffffff1614806105c757506105c6816105c1610fe3565b610e9a565b5b610606576040517f08c379a00000000000000000000000000000000000000000000000000000000081526004016105fd90612c46565b60405180910390fd5b6106108383610feb565b505050565b61061d6110a4565b60008311610660576040517f08c379a000000000000000000000000000000000000000000000000000000000815260040161065790612b86565b60405180910390fd5b60008210158015610672575060018211155b6106b1576040517f08c379a00000000000000000000000000000000000000000000000000000000081526004016106a890612be6565b60405180910390fd5b60006106bd600b6110f4565b90506106c9600b611102565b60008467ffffffffffffffff81111561070b577f4e487b7100000000000000000000000000000000000000000000000000000000600052604160045260246000fd5b6040519080825280602002602001820160405280156107395781602001602082028036833780820191505090505b50905060005b858110156108cd576000610754898988611118565b905060405180608001604052808281526020013373ffffffffffffffffffffffffffffffffffffffff1681526020013373ffffffffffffffffffffffffffffffffffffffff168152602001861515815250600c60008381526020019081526020016000206000820151816000015560208201518160010160006101000a81548173ffffffffffffffffffffffffffffffffffffffff021916908373ffffffffffffffffffffffffffffffffffffffff16021790555060408201518160020160006101000a81548173ffffffffffffffffffffffffffffffffffffffff021916908373ffffffffffffffffffffffffffffffffffffffff16021790555060608201518160020160146101000a81548160ff021916908315150217905550905050808383815181106108ad577f4e487b7100000000000000000000000000000000000000000000000000000000600052603260045260246000fd5b6020026020010181815250505080806108c590612ebe565b91505061073f565b508481511415610927573373ffffffffffffffffffffffffffffffffffffffff16827f88c55e90330027a4740cd7d2bafb3fc31c21bbaa17745d80b328c53c4916ebf48360405161091e9190612a07565b60405180910390a35b50506109316111e4565b5050505050565b610949610943610fe3565b826111ee565b610988576040517f08c379a000000000000000000000000000000000000000000000000000000000815260040161097f90612a86565b60405180910390fd5b610993838383611283565b505050565b6109b383838360405180602001604052806000815250610d25565b505050565b6000806109c48361157d565b9050600073ffffffffffffffffffffffffffffffffffffffff168173ffffffffffffffffffffffffffffffffffffffff161415610a36576040517f08c379a0000000000000000000000000000000000000000000000000000000008152600401610a2d90612c06565b60405180910390fd5b80915050919050565b60008073ffffffffffffffffffffffffffffffffffffffff168273ffffffffffffffffffffffffffffffffffffffff161415610ab0576040517f08c379a0000000000000000000000000000000000000000000000000000000008152600401610aa790612b66565b60405180910390fd5b600360008373ffffffffffffffffffffffffffffffffffffffff1673ffffffffffffffffffffffffffffffffffffffff168152602001908152602001600020549050919050565b610aff6110a4565b60008110158015610b11575060018111155b610b50576040517f08c379a0000000000000000000000000000000000000000000000000000000008152600401610b4790612be6565b60405180910390fd5b6001811415610ba857610ba78484848080601f016020809104026020016040519081016040528093929190818152602001838380828437600081840152601f19601f820116905080830192505050505050506115ba565b5b3073ffffffffffffffffffffffffffffffffffffffff168673ffffffffffffffffffffffffffffffffffffffff1614610c3b57610be533856111ee565b610c24576040517f08c379a0000000000000000000000000000000000000000000000000000000008152600401610c1b90612c66565b60405180910390fd5b610c36610c2f610fe3565b8686611283565b610c47565b610c46868686611283565b5b610c4f6111e4565b505050505050565b600960009054906101000a900473ffffffffffffffffffffffffffffffffffffffff1681565b606060018054610c8c90612e5b565b80601f0160208091040260200160405190810160405280929190818152602001828054610cb890612e5b565b8015610d055780601f10610cda57610100808354040283529160200191610d05565b820191906000526020600020905b815481529060010190602001808311610ce857829003601f168201915b5050505050905090565b610d21610d1a610fe3565b838361162e565b5050565b610d36610d30610fe3565b836111ee565b610d75576040517f08c379a0000000000000000000000000000000000000000000000000000000008152600401610d6c90612a86565b60405180910390fd5b610d818484848461179b565b50505050565b6060610d9282610f98565b6000600660008481526020019081526020016000208054610db290612e5b565b80601f0160208091040260200160405190810160405280929190818152602001828054610dde90612e5b565b8015610e2b5780601f10610e0057610100808354040283529160200191610e2b565b820191906000526020600020905b815481529060010190602001808311610e0e57829003601f168201915b505050505090506000610e3c6117f7565b9050600081511415610e52578192505050610e95565b600082511115610e87578082604051602001610e6f929190612961565b60405160208183030381529060405292505050610e95565b610e908461180e565b925050505b919050565b6000600560008473ffffffffffffffffffffffffffffffffffffffff1673ffffffffffffffffffffffffffffffffffffffff16815260200190815260200160002060008373ffffffffffffffffffffffffffffffffffffffff1673ffffffffffffffffffffffffffffffffffffffff16815260200190815260200160002060009054906101000a900460ff16905092915050565b60007f01ffc9a7000000000000000000000000000000000000000000000000000000007bffffffffffffffffffffffffffffffffffffffffffffffffffffffff1916827bffffffffffffffffffffffffffffffffffffffffffffffffffffffff1916149050919050565b610fa181611876565b610fe0576040517f08c379a0000000000000000000000000000000000000000000000000000000008152600401610fd790612c06565b60405180910390fd5b50565b600033905090565b816004600083815260200190815260200160002060006101000a81548173ffffffffffffffffffffffffffffffffffffffff021916908373ffffffffffffffffffffffffffffffffffffffff160217905550808273ffffffffffffffffffffffffffffffffffffffff1661105e836109b8565b73ffffffffffffffffffffffffffffffffffffffff167f8c5be1e5ebec7d5bd14f71427d1e84f3dd0314c0f7b2291e5b200ac8c7c3b92560405160405180910390a45050565b600260085414156110ea576040517f08c379a00000000000000000000000000000000000000000000000000000000081526004016110e190612c86565b60405180910390fd5b6002600881905550565b600081600001549050919050565b6001816000016000828254019250508190555050565b600080611125600a6110f4565b9050611131600a611102565b61113b30826118b7565b60008314156111d9576000858590501161118a576040517f08c379a000000000000000000000000000000000000000000000000000000000815260040161118190612b46565b60405180910390fd5b6111d88186868080601f016020809104026020016040519081016040528093929190818152602001838380828437600081840152601f19601f820116905080830192505050505050506115ba565b5b809150509392505050565b6001600881905550565b6000806111fa836109b8565b90508073ffffffffffffffffffffffffffffffffffffffff168473ffffffffffffffffffffffffffffffffffffffff16148061123c575061123b8185610e9a565b5b8061127a57508373ffffffffffffffffffffffffffffffffffffffff16611262846104b7565b73ffffffffffffffffffffffffffffffffffffffff16145b91505092915050565b8273ffffffffffffffffffffffffffffffffffffffff166112a3826109b8565b73ffffffffffffffffffffffffffffffffffffffff16146112f9576040517f08c379a00000000000000000000000000000000000000000000000000000000081526004016112f090612ac6565b60405180910390fd5b600073ffffffffffffffffffffffffffffffffffffffff168273ffffffffffffffffffffffffffffffffffffffff161415611369576040517f08c379a000000000000000000000000000000000000000000000000000000000815260040161136090612b06565b60405180910390fd5b6113768383836001611ad5565b8273ffffffffffffffffffffffffffffffffffffffff16611396826109b8565b73ffffffffffffffffffffffffffffffffffffffff16146113ec576040517f08c379a00000000000000000000000000000000000000000000000000000000081526004016113e390612ac6565b60405180910390fd5b6004600082815260200190815260200160002060006101000a81549073ffffffffffffffffffffffffffffffffffffffff02191690556001600360008573ffffffffffffffffffffffffffffffffffffffff1673ffffffffffffffffffffffffffffffffffffffff168152602001908152602001600020600082825403925050819055506001600360008473ffffffffffffffffffffffffffffffffffffffff1673ffffffffffffffffffffffffffffffffffffffff16815260200190815260200160002060008282540192505081905550816002600083815260200190815260200160002060006101000a81548173ffffffffffffffffffffffffffffffffffffffff021916908373ffffffffffffffffffffffffffffffffffffffff160217905550808273ffffffffffffffffffffffffffffffffffffffff168473ffffffffffffffffffffffffffffffffffffffff167fddf252ad1be2c89b69c2b068fc378daa952ba7f163c4a11628f55a4df523b3ef60405160405180910390a46115788383836001611b7a565b505050565b60006002600083815260200190815260200160002060009054906101000a900473ffffffffffffffffffffffffffffffffffffffff169050919050565b6115c382611876565b611602576040517f08c379a00000000000000000000000000000000000000000000000000000000081526004016115f990612ba6565b60405180910390fd5b80600660008481526020019081526020016000209080519060200190611629929190612095565b505050565b8173ffffffffffffffffffffffffffffffffffffffff168373ffffffffffffffffffffffffffffffffffffffff16141561169d576040517f08c379a000000000000000000000000000000000000000000000000000000000815260040161169490612b26565b60405180910390fd5b80600560008573ffffffffffffffffffffffffffffffffffffffff1673ffffffffffffffffffffffffffffffffffffffff16815260200190815260200160002060008473ffffffffffffffffffffffffffffffffffffffff1673ffffffffffffffffffffffffffffffffffffffff16815260200190815260200160002060006101000a81548160ff0219169083151502179055508173ffffffffffffffffffffffffffffffffffffffff168373ffffffffffffffffffffffffffffffffffffffff167f17307eab39ab6107e8899845ad3d59bd9653f200f220920489ca2b5937696c318360405161178e9190612a29565b60405180910390a3505050565b6117a6848484611283565b6117b284848484611b80565b6117f1576040517f08c379a00000000000000000000000000000000000000000000000000000000081526004016117e890612aa6565b60405180910390fd5b50505050565b606060405180602001604052806000815250905090565b606061181982610f98565b60006118236117f7565b90506000815111611843576040518060200160405280600081525061186e565b8061184d84611d17565b60405160200161185e929190612961565b6040516020818303038152906040525b915050919050565b60008073ffffffffffffffffffffffffffffffffffffffff166118988361157d565b73ffffffffffffffffffffffffffffffffffffffff1614159050919050565b600073ffffffffffffffffffffffffffffffffffffffff168273ffffffffffffffffffffffffffffffffffffffff161415611927576040517f08c379a000000000000000000000000000000000000000000000000000000000815260040161191e90612bc6565b60405180910390fd5b61193081611876565b15611970576040517f08c379a000000000000000000000000000000000000000000000000000000000815260040161196790612ae6565b60405180910390fd5b61197e600083836001611ad5565b61198781611876565b156119c7576040517f08c379a00000000000000000000000000000000000000000000000000000000081526004016119be90612ae6565b60405180910390fd5b6001600360008473ffffffffffffffffffffffffffffffffffffffff1673ffffffffffffffffffffffffffffffffffffffff16815260200190815260200160002060008282540192505081905550816002600083815260200190815260200160002060006101000a81548173ffffffffffffffffffffffffffffffffffffffff021916908373ffffffffffffffffffffffffffffffffffffffff160217905550808273ffffffffffffffffffffffffffffffffffffffff16600073ffffffffffffffffffffffffffffffffffffffff167fddf252ad1be2c89b69c2b068fc378daa952ba7f163c4a11628f55a4df523b3ef60405160405180910390a4611ad1600083836001611b7a565b5050565b3073ffffffffffffffffffffffffffffffffffffffff168473ffffffffffffffffffffffffffffffffffffffff1614611b745760011515600c600084815260200190815260200160002060020160149054906101000a900460ff1615151415611b73576040517f08c379a0000000000000000000000000000000000000000000000000000000008152600401611b6a90612a66565b60405180910390fd5b5b50505050565b50505050565b6000611ba18473ffffffffffffffffffffffffffffffffffffffff16611e3b565b15611d0a578373ffffffffffffffffffffffffffffffffffffffff1663150b7a02611bca610fe3565b8786866040518563ffffffff1660e01b8152600401611bec94939291906129bb565b602060405180830381600087803b158015611c0657600080fd5b505af1925050508015611c3757506040513d601f19601f82011682018060405250810190611c3491906124b5565b60015b611cba573d8060008114611c67576040519150601f19603f3d011682016040523d82523d6000602084013e611c6c565b606091505b50600081511415611cb2576040517f08c379a0000000000000000000000000000000000000000000000000000000008152600401611ca990612aa6565b60405180910390fd5b805181602001fd5b63150b7a0260e01b7bffffffffffffffffffffffffffffffffffffffffffffffffffffffff1916817bffffffffffffffffffffffffffffffffffffffffffffffffffffffff191614915050611d0f565b600190505b949350505050565b606060006001611d2684611e5e565b01905060008167ffffffffffffffff811115611d6b577f4e487b7100000000000000000000000000000000000000000000000000000000600052604160045260246000fd5b6040519080825280601f01601f191660200182016040528015611d9d5781602001600182028036833780820191505090505b509050600082602001820190505b600115611e30578080600190039150507f3031323334353637383961626364656600000000000000000000000000000000600a86061a8153600a8581611e1a577f4e487b7100000000000000000000000000000000000000000000000000000000600052601260045260246000fd5b0494506000851415611e2b57611e30565b611dab565b819350505050919050565b6000808273ffffffffffffffffffffffffffffffffffffffff163b119050919050565b600080600090507a184f03e93ff9f4daa797ed6e38ed64bf6a1f0100000000000000008310611ee2577a184f03e93ff9f4daa797ed6e38ed64bf6a1f0100000000000000008381611ed8577f4e487b7100000000000000000000000000000000000000000000000000000000600052601260045260246000fd5b0492506040810190505b6d04ee2d6d415b85acef81000000008310611f45576d04ee2d6d415b85acef81000000008381611f3b577f4e487b7100000000000000000000000000000000000000000000000000000000600052601260045260246000fd5b0492506020810190505b662386f26fc100008310611f9a57662386f26fc100008381611f90577f4e487b7100000000000000000000000000000000000000000000000000000000600052601260045260246000fd5b0492506010810190505b6305f5e1008310611fe9576305f5e1008381611fdf577f4e487b7100000000000000000000000000000000000000000000000000000000600052601260045260246000fd5b0492506008810190505b612710831061203457612710838161202a577f4e487b7100000000000000000000000000000000000000000000000000000000600052601260045260246000fd5b0492506004810190505b6064831061207d5760648381612073577f4e487b7100000000000000000000000000000000000000000000000000000000600052601260045260246000fd5b0492506002810190505b600a831061208c576001810190505b80915050919050565b8280546120a190612e5b565b90600052602060002090601f0160209004810192826120c3576000855561210a565b82601f106120dc57805160ff191683800117855561210a565b8280016001018555821561210a579182015b828111156121095782518255916020019190600101906120ee565b5b509050612117919061211b565b5090565b5b8082111561213457600081600090555060010161211c565b5090565b600061214b61214684612ce6565b612cc1565b90508281526020810184848401111561216357600080fd5b61216e848285612e19565b509392505050565b600081359050612185816133dd565b92915050565b60008135905061219a816133f4565b92915050565b6000813590506121af8161340b565b92915050565b6000815190506121c48161340b565b92915050565b600082601f8301126121db57600080fd5b81356121eb848260208601612138565b91505092915050565b60008083601f84011261220657600080fd5b8235905067ffffffffffffffff81111561221f57600080fd5b60208301915083600182028301111561223757600080fd5b9250929050565b60008135905061224d81613422565b92915050565b60006020828403121561226557600080fd5b600061227384828501612176565b91505092915050565b6000806040838503121561228f57600080fd5b600061229d85828601612176565b92505060206122ae85828601612176565b9150509250929050565b6000806000606084860312156122cd57600080fd5b60006122db86828701612176565b93505060206122ec86828701612176565b92505060406122fd8682870161223e565b9150509250925092565b6000806000806080858703121561231d57600080fd5b600061232b87828801612176565b945050602061233c87828801612176565b935050604061234d8782880161223e565b925050606085013567ffffffffffffffff81111561236a57600080fd5b612376878288016121ca565b91505092959194509250565b60008060008060008060a0878903121561239b57600080fd5b60006123a989828a01612176565b96505060206123ba89828a01612176565b95505060406123cb89828a0161223e565b945050606087013567ffffffffffffffff8111156123e857600080fd5b6123f489828a016121f4565b9350935050608061240789828a0161223e565b9150509295509295509295565b6000806040838503121561242757600080fd5b600061243585828601612176565b92505060206124468582860161218b565b9150509250929050565b6000806040838503121561246357600080fd5b600061247185828601612176565b92505060206124828582860161223e565b9150509250929050565b60006020828403121561249e57600080fd5b60006124ac848285016121a0565b91505092915050565b6000602082840312156124c757600080fd5b60006124d5848285016121b5565b91505092915050565b6000806000806000608086880312156124f657600080fd5b600086013567ffffffffffffffff81111561251057600080fd5b61251c888289016121f4565b9550955050602061252f8882890161223e565b93505060406125408882890161223e565b92505060606125518882890161218b565b9150509295509295909350565b60006020828403121561257057600080fd5b600061257e8482850161223e565b91505092915050565b60006125938383612943565b60208301905092915050565b6125a881612da5565b82525050565b6125b781612d93565b82525050565b60006125c882612d27565b6125d28185612d55565b93506125dd83612d17565b8060005b8381101561260e5781516125f58882612587565b975061260083612d48565b9250506001810190506125e1565b5085935050505092915050565b61262481612db7565b82525050565b600061263582612d32565b61263f8185612d66565b935061264f818560208601612e28565b61265881612f94565b840191505092915050565b600061266e82612d3d565b6126788185612d77565b9350612688818560208601612e28565b61269181612f94565b840191505092915050565b60006126a782612d3d565b6126b18185612d88565b93506126c1818560208601612e28565b80840191505092915050565b60006126da601d83612d77565b91506126e582612fa5565b602082019050919050565b60006126fd602d83612d77565b915061270882612fce565b604082019050919050565b6000612720603283612d77565b915061272b8261301d565b604082019050919050565b6000612743602583612d77565b915061274e8261306c565b604082019050919050565b6000612766601c83612d77565b9150612771826130bb565b602082019050919050565b6000612789602483612d77565b9150612794826130e4565b604082019050919050565b60006127ac601983612d77565b91506127b782613133565b602082019050919050565b60006127cf601b83612d77565b91506127da8261315c565b602082019050919050565b60006127f2602983612d77565b91506127fd82613185565b604082019050919050565b6000612815601083612d77565b9150612820826131d4565b602082019050919050565b6000612838602e83612d77565b9150612843826131fd565b604082019050919050565b600061285b602083612d77565b91506128668261324c565b602082019050919050565b600061287e600d83612d77565b915061288982613275565b602082019050919050565b60006128a1601883612d77565b91506128ac8261329e565b602082019050919050565b60006128c4602183612d77565b91506128cf826132c7565b604082019050919050565b60006128e7603d83612d77565b91506128f282613316565b604082019050919050565b600061290a603183612d77565b915061291582613365565b604082019050919050565b600061292d601f83612d77565b9150612938826133b4565b602082019050919050565b61294c81612e0f565b82525050565b61295b81612e0f565b82525050565b600061296d828561269c565b9150612979828461269c565b91508190509392505050565b600060208201905061299a60008301846125ae565b92915050565b60006020820190506129b5600083018461259f565b92915050565b60006080820190506129d060008301876125ae565b6129dd60208301866125ae565b6129ea6040830185612952565b81810360608301526129fc818461262a565b905095945050505050565b60006020820190508181036000830152612a2181846125bd565b905092915050565b6000602082019050612a3e600083018461261b565b92915050565b60006020820190508181036000830152612a5e8184612663565b905092915050565b60006020820190508181036000830152612a7f816126cd565b9050919050565b60006020820190508181036000830152612a9f816126f0565b9050919050565b60006020820190508181036000830152612abf81612713565b9050919050565b60006020820190508181036000830152612adf81612736565b9050919050565b60006020820190508181036000830152612aff81612759565b9050919050565b60006020820190508181036000830152612b1f8161277c565b9050919050565b60006020820190508181036000830152612b3f8161279f565b9050919050565b60006020820190508181036000830152612b5f816127c2565b9050919050565b60006020820190508181036000830152612b7f816127e5565b9050919050565b60006020820190508181036000830152612b9f81612808565b9050919050565b60006020820190508181036000830152612bbf8161282b565b9050919050565b60006020820190508181036000830152612bdf8161284e565b9050919050565b60006020820190508181036000830152612bff81612871565b9050919050565b60006020820190508181036000830152612c1f81612894565b9050919050565b60006020820190508181036000830152612c3f816128b7565b9050919050565b60006020820190508181036000830152612c5f816128da565b9050919050565b60006020820190508181036000830152612c7f816128fd565b9050919050565b60006020820190508181036000830152612c9f81612920565b9050919050565b6000602082019050612cbb6000830184612952565b92915050565b6000612ccb612cdc565b9050612cd78282612e8d565b919050565b6000604051905090565b600067ffffffffffffffff821115612d0157612d00612f65565b5b612d0a82612f94565b9050602081019050919050565b6000819050602082019050919050565b600081519050919050565b600081519050919050565b600081519050919050565b6000602082019050919050565b600082825260208201905092915050565b600082825260208201905092915050565b600082825260208201905092915050565b600081905092915050565b6000612d9e82612def565b9050919050565b6000612db082612def565b9050919050565b60008115159050919050565b60007fffffffff0000000000000000000000000000000000000000000000000000000082169050919050565b600073ffffffffffffffffffffffffffffffffffffffff82169050919050565b6000819050919050565b82818337600083830152505050565b60005b83811015612e46578082015181840152602081019050612e2b565b83811115612e55576000848401525b50505050565b60006002820490506001821680612e7357607f821691505b60208210811415612e8757612e86612f36565b5b50919050565b612e9682612f94565b810181811067ffffffffffffffff82111715612eb557612eb4612f65565b5b80604052505050565b6000612ec982612e0f565b91507fffffffffffffffffffffffffffffffffffffffffffffffffffffffffffffffff821415612efc57612efb612f07565b5b600182019050919050565b7f4e487b7100000000000000000000000000000000000000000000000000000000600052601160045260246000fd5b7f4e487b7100000000000000000000000000000000000000000000000000000000600052602260045260246000fd5b7f4e487b7100000000000000000000000000000000000000000000000000000000600052604160045260246000fd5b6000601f19601f8301169050919050565b7f4e6f7420616c6c6f77656420746f207472616e7366657220746f6b656e000000600082015250565b7f4552433732313a2063616c6c6572206973206e6f7420746f6b656e206f776e6560008201527f72206f7220617070726f76656400000000000000000000000000000000000000602082015250565b7f4552433732313a207472616e7366657220746f206e6f6e20455243373231526560008201527f63656976657220696d706c656d656e7465720000000000000000000000000000602082015250565b7f4552433732313a207472616e736665722066726f6d20696e636f72726563742060008201527f6f776e6572000000000000000000000000000000000000000000000000000000602082015250565b7f4552433732313a20746f6b656e20616c7265616479206d696e74656400000000600082015250565b7f4552433732313a207472616e7366657220746f20746865207a65726f2061646460008201527f7265737300000000000000000000000000000000000000000000000000000000602082015250565b7f4552433732313a20617070726f766520746f2063616c6c657200000000000000600082015250565b7f546f6b656e20555249206d757374206e6f7420626520656d7074790000000000600082015250565b7f4552433732313a2061646472657373207a65726f206973206e6f74206120766160008201527f6c6964206f776e65720000000000000000000000000000000000000000000000602082015250565b7f496e76616c6964207175616e7469747900000000000000000000000000000000600082015250565b7f45524337323155524953746f726167653a2055524920736574206f66206e6f6e60008201527f6578697374656e7420746f6b656e000000000000000000000000000000000000602082015250565b7f4552433732313a206d696e7420746f20746865207a65726f2061646472657373600082015250565b7f496e76616c69642076616c756500000000000000000000000000000000000000600082015250565b7f4552433732313a20696e76616c696420746f6b656e2049440000000000000000600082015250565b7f4552433732313a20617070726f76616c20746f2063757272656e74206f776e6560008201527f7200000000000000000000000000000000000000000000000000000000000000602082015250565b7f4552433732313a20617070726f76652063616c6c6572206973206e6f7420746f60008201527f6b656e206f776e6572206f7220617070726f76656420666f7220616c6c000000602082015250565b7f4552433732313a207472616e736665722063616c6c6572206973206e6f74206f60008201527f776e6572206e6f7220617070726f766564000000000000000000000000000000602082015250565b7f5265656e7472616e637947756172643a207265656e7472616e742063616c6c00600082015250565b6133e681612d93565b81146133f157600080fd5b50565b6133fd81612db7565b811461340857600080fd5b50565b61341481612dc3565b811461341f57600080fd5b50565b61342b81612e0f565b811461343657600080fd5b5056fea26469706673582212204413df7832ea58af7afe5176ede8bfca6e871c174219453d9df307544d35261864736f6c63430008040033",
  "devdoc": {
    "kind": "dev",
    "methods": {
      "approve(address,uint256)": {
        "details": "See {IERC721-approve}."
      },
      "balanceOf(address)": {
        "details": "See {IERC721-balanceOf}."
      },
      "bulkMintERC721(string,uint256,uint256,bool)": {
        "params": {
          "quantity": "Number of nft needs to be minted for particular event Id.",
          "tokenUri": "Metadata of nft.",
          "value": "0 means it's Badges and 1 means it's certificates."
        }
      },
      "getApproved(uint256)": {
        "details": "See {IERC721-getApproved}."
      },
      "isApprovedForAll(address,address)": {
        "details": "See {IERC721-isApprovedForAll}."
      },
      "name()": {
        "details": "See {IERC721Metadata-name}."
      },
      "ownerOf(uint256)": {
        "details": "See {IERC721-ownerOf}."
      },
      "safeTransferFrom(address,address,uint256)": {
        "details": "See {IERC721-safeTransferFrom}."
      },
      "safeTransferFrom(address,address,uint256,bytes)": {
        "details": "See {IERC721-safeTransferFrom}."
      },
      "setApprovalForAll(address,bool)": {
        "details": "See {IERC721-setApprovalForAll}."
      },
      "supportsInterface(bytes4)": {
        "details": "See {IERC165-supportsInterface}."
      },
      "symbol()": {
        "details": "See {IERC721Metadata-symbol}."
      },
      "tokenURI(uint256)": {
        "details": "See {IERC721Metadata-tokenURI}."
      },
      "transferFrom(address,address,uint256)": {
        "details": "See {IERC721-transferFrom}."
      },
      "transferToken(address,address,uint256,string,uint256)": {
        "details": "Function to claim nfts. Here if value == 1 which means we set the tokenURI for certificates nft in claim token(tranfer token)",
        "params": {
          "from": "Address of nft owner.",
          "to": "Address of nft receiver.",
          "tokenId": "token Id of nft.",
          "tokenURI": "Metadata of nft.",
          "value": "0 means it's Badges and 1 means it's certificates."
        }
      }
    },
    "version": 1
  },
  "userdoc": {
    "kind": "user",
    "methods": {},
    "version": 1
  },
  "storageLayout": {
    "storage": [
      {
        "astId": 79,
        "contract": "contracts/Trustified.sol:Trustified",
        "label": "_name",
        "offset": 0,
        "slot": "0",
        "type": "t_string_storage"
      },
      {
        "astId": 81,
        "contract": "contracts/Trustified.sol:Trustified",
        "label": "_symbol",
        "offset": 0,
        "slot": "1",
        "type": "t_string_storage"
      },
      {
        "astId": 85,
        "contract": "contracts/Trustified.sol:Trustified",
        "label": "_owners",
        "offset": 0,
        "slot": "2",
        "type": "t_mapping(t_uint256,t_address)"
      },
      {
        "astId": 89,
        "contract": "contracts/Trustified.sol:Trustified",
        "label": "_balances",
        "offset": 0,
        "slot": "3",
        "type": "t_mapping(t_address,t_uint256)"
      },
      {
        "astId": 93,
        "contract": "contracts/Trustified.sol:Trustified",
        "label": "_tokenApprovals",
        "offset": 0,
        "slot": "4",
        "type": "t_mapping(t_uint256,t_address)"
      },
      {
        "astId": 99,
        "contract": "contracts/Trustified.sol:Trustified",
        "label": "_operatorApprovals",
        "offset": 0,
        "slot": "5",
        "type": "t_mapping(t_address,t_mapping(t_address,t_bool))"
      },
      {
        "astId": 3317,
        "contract": "contracts/Trustified.sol:Trustified",
        "label": "_tokenURIs",
        "offset": 0,
        "slot": "6",
        "type": "t_mapping(t_uint256,t_string_storage)"
      },
      {
        "astId": 3321,
        "contract": "contracts/Trustified.sol:Trustified",
        "label": "_transferred",
        "offset": 0,
        "slot": "7",
        "type": "t_mapping(t_uint256,t_bool)"
      },
      {
        "astId": 10,
        "contract": "contracts/Trustified.sol:Trustified",
        "label": "_status",
        "offset": 0,
        "slot": "8",
        "type": "t_uint256"
      },
      {
        "astId": 2989,
        "contract": "contracts/Trustified.sol:Trustified",
        "label": "owner",
        "offset": 0,
        "slot": "9",
        "type": "t_address_payable"
      },
      {
        "astId": 2996,
        "contract": "contracts/Trustified.sol:Trustified",
        "label": "_tokenIdCounter",
        "offset": 0,
        "slot": "10",
        "type": "t_struct(Counter)1517_storage"
      },
      {
        "astId": 2999,
        "contract": "contracts/Trustified.sol:Trustified",
        "label": "_eventIdCounter",
        "offset": 0,
        "slot": "11",
        "type": "t_struct(Counter)1517_storage"
      },
      {
        "astId": 3038,
        "contract": "contracts/Trustified.sol:Trustified",
        "label": "tokens",
        "offset": 0,
        "slot": "12",
        "type": "t_mapping(t_uint256,t_struct(token)3033_storage)"
      }
    ],
    "types": {
      "t_address": {
        "encoding": "inplace",
        "label": "address",
        "numberOfBytes": "20"
      },
      "t_address_payable": {
        "encoding": "inplace",
        "label": "address payable",
        "numberOfBytes": "20"
      },
      "t_bool": {
        "encoding": "inplace",
        "label": "bool",
        "numberOfBytes": "1"
      },
      "t_mapping(t_address,t_bool)": {
        "encoding": "mapping",
        "key": "t_address",
        "label": "mapping(address => bool)",
        "numberOfBytes": "32",
        "value": "t_bool"
      },
      "t_mapping(t_address,t_mapping(t_address,t_bool))": {
        "encoding": "mapping",
        "key": "t_address",
        "label": "mapping(address => mapping(address => bool))",
        "numberOfBytes": "32",
        "value": "t_mapping(t_address,t_bool)"
      },
      "t_mapping(t_address,t_uint256)": {
        "encoding": "mapping",
        "key": "t_address",
        "label": "mapping(address => uint256)",
        "numberOfBytes": "32",
        "value": "t_uint256"
      },
      "t_mapping(t_uint256,t_address)": {
        "encoding": "mapping",
        "key": "t_uint256",
        "label": "mapping(uint256 => address)",
        "numberOfBytes": "32",
        "value": "t_address"
      },
      "t_mapping(t_uint256,t_bool)": {
        "encoding": "mapping",
        "key": "t_uint256",
        "label": "mapping(uint256 => bool)",
        "numberOfBytes": "32",
        "value": "t_bool"
      },
      "t_mapping(t_uint256,t_string_storage)": {
        "encoding": "mapping",
        "key": "t_uint256",
        "label": "mapping(uint256 => string)",
        "numberOfBytes": "32",
        "value": "t_string_storage"
      },
      "t_mapping(t_uint256,t_struct(token)3033_storage)": {
        "encoding": "mapping",
        "key": "t_uint256",
        "label": "mapping(uint256 => struct Trustified.token)",
        "numberOfBytes": "32",
        "value": "t_struct(token)3033_storage"
      },
      "t_string_storage": {
        "encoding": "bytes",
        "label": "string",
        "numberOfBytes": "32"
      },
      "t_struct(Counter)1517_storage": {
        "encoding": "inplace",
        "label": "struct Counters.Counter",
        "members": [
          {
            "astId": 1516,
            "contract": "contracts/Trustified.sol:Trustified",
            "label": "_value",
            "offset": 0,
            "slot": "0",
            "type": "t_uint256"
          }
        ],
        "numberOfBytes": "32"
      },
      "t_struct(token)3033_storage": {
        "encoding": "inplace",
        "label": "struct Trustified.token",
        "members": [
          {
            "astId": 3026,
            "contract": "contracts/Trustified.sol:Trustified",
            "label": "tokenId",
            "offset": 0,
            "slot": "0",
            "type": "t_uint256"
          },
          {
            "astId": 3028,
            "contract": "contracts/Trustified.sol:Trustified",
            "label": "creator",
            "offset": 0,
            "slot": "1",
            "type": "t_address_payable"
          },
          {
            "astId": 3030,
            "contract": "contracts/Trustified.sol:Trustified",
            "label": "owner",
            "offset": 0,
            "slot": "2",
            "type": "t_address_payable"
          },
          {
            "astId": 3032,
            "contract": "contracts/Trustified.sol:Trustified",
            "label": "nonTransferable",
            "offset": 20,
            "slot": "2",
            "type": "t_bool"
          }
        ],
        "numberOfBytes": "96"
      },
      "t_uint256": {
        "encoding": "inplace",
        "label": "uint256",
        "numberOfBytes": "32"
      }
    }
  }
}