{
  "_format": "hh-sol-artifact-1",
  "contractName": "TrustifiedIssuer",
  "sourceName": "contracts/TrustifiedIssuer.sol",
  "abi": [
    {
      "inputs": [
        {
          "internalType": "address[]",
          "name": "wallets",
          "type": "address[]"
        },
        {
          "internalType": "bool[]",
          "name": "allowed",
          "type": "bool[]"
        }
      ],
      "stateMutability": "nonpayable",
      "type": "constructor"
    },
    {
      "anonymous": false,
      "inputs": [
        {
          "indexed": true,
          "internalType": "address",
          "name": "owner",
          "type": "address"
        },
        {
          "indexed": true,
          "internalType": "address",
          "name": "approved",
          "type": "address"
        },
        {
          "indexed": true,
          "internalType": "uint256",
          "name": "tokenId",
          "type": "uint256"
        }
      ],
      "name": "Approval",
      "type": "event"
    },
    {
      "anonymous": false,
      "inputs": [
        {
          "indexed": true,
          "internalType": "address",
          "name": "owner",
          "type": "address"
        },
        {
          "indexed": true,
          "internalType": "address",
          "name": "operator",
          "type": "address"
        },
        {
          "indexed": false,
          "internalType": "bool",
          "name": "approved",
          "type": "bool"
        }
      ],
      "name": "ApprovalForAll",
      "type": "event"
    },
    {
      "anonymous": false,
      "inputs": [
        {
          "indexed": true,
          "internalType": "address",
          "name": "from",
          "type": "address"
        },
        {
          "indexed": true,
          "internalType": "address",
          "name": "to",
          "type": "address"
        },
        {
          "indexed": true,
          "internalType": "uint256",
          "name": "tokenId",
          "type": "uint256"
        }
      ],
      "name": "Transfer",
      "type": "event"
    },
    {
      "inputs": [
        {
          "internalType": "address",
          "name": "to",
          "type": "address"
        },
        {
          "internalType": "uint256",
          "name": "tokenId",
          "type": "uint256"
        }
      ],
      "name": "approve",
      "outputs": [],
      "stateMutability": "nonpayable",
      "type": "function"
    },
    {
      "inputs": [
        {
          "internalType": "address",
          "name": "owner",
          "type": "address"
        }
      ],
      "name": "balanceOf",
      "outputs": [
        {
          "internalType": "uint256",
          "name": "",
          "type": "uint256"
        }
      ],
      "stateMutability": "view",
      "type": "function"
    },
    {
      "inputs": [
        {
          "internalType": "string",
          "name": "tokenURI",
          "type": "string"
        },
        {
          "internalType": "address[]",
          "name": "issuers",
          "type": "address[]"
        }
      ],
      "name": "createTokens",
      "outputs": [],
      "stateMutability": "nonpayable",
      "type": "function"
    },
    {
      "inputs": [
        {
          "internalType": "uint256",
          "name": "tokenId",
          "type": "uint256"
        }
      ],
      "name": "getApproved",
      "outputs": [
        {
          "internalType": "address",
          "name": "",
          "type": "address"
        }
      ],
      "stateMutability": "view",
      "type": "function"
    },
    {
      "inputs": [],
      "name": "isAllowed",
      "outputs": [
        {
          "internalType": "bool",
          "name": "",
          "type": "bool"
        }
      ],
      "stateMutability": "view",
      "type": "function"
    },
    {
      "inputs": [
        {
          "internalType": "address",
          "name": "owner",
          "type": "address"
        },
        {
          "internalType": "address",
          "name": "operator",
          "type": "address"
        }
      ],
      "name": "isApprovedForAll",
      "outputs": [
        {
          "internalType": "bool",
          "name": "",
          "type": "bool"
        }
      ],
      "stateMutability": "view",
      "type": "function"
    },
    {
      "inputs": [],
      "name": "name",
      "outputs": [
        {
          "internalType": "string",
          "name": "",
          "type": "string"
        }
      ],
      "stateMutability": "view",
      "type": "function"
    },
    {
      "inputs": [],
      "name": "owner",
      "outputs": [
        {
          "internalType": "address",
          "name": "",
          "type": "address"
        }
      ],
      "stateMutability": "view",
      "type": "function"
    },
    {
      "inputs": [
        {
          "internalType": "uint256",
          "name": "tokenId",
          "type": "uint256"
        }
      ],
      "name": "ownerOf",
      "outputs": [
        {
          "internalType": "address",
          "name": "",
          "type": "address"
        }
      ],
      "stateMutability": "view",
      "type": "function"
    },
    {
      "inputs": [
        {
          "internalType": "address",
          "name": "from",
          "type": "address"
        },
        {
          "internalType": "address",
          "name": "to",
          "type": "address"
        },
        {
          "internalType": "uint256",
          "name": "tokenId",
          "type": "uint256"
        }
      ],
      "name": "safeTransferFrom",
      "outputs": [],
      "stateMutability": "nonpayable",
      "type": "function"
    },
    {
      "inputs": [
        {
          "internalType": "address",
          "name": "from",
          "type": "address"
        },
        {
          "internalType": "address",
          "name": "to",
          "type": "address"
        },
        {
          "internalType": "uint256",
          "name": "tokenId",
          "type": "uint256"
        },
        {
          "internalType": "bytes",
          "name": "data",
          "type": "bytes"
        }
      ],
      "name": "safeTransferFrom",
      "outputs": [],
      "stateMutability": "nonpayable",
      "type": "function"
    },
    {
      "inputs": [
        {
          "internalType": "address",
          "name": "wallet",
          "type": "address"
        },
        {
          "internalType": "bool",
          "name": "allowed",
          "type": "bool"
        }
      ],
      "name": "setAllowedWallet",
      "outputs": [],
      "stateMutability": "nonpayable",
      "type": "function"
    },
    {
      "inputs": [
        {
          "internalType": "address",
          "name": "operator",
          "type": "address"
        },
        {
          "internalType": "bool",
          "name": "approved",
          "type": "bool"
        }
      ],
      "name": "setApprovalForAll",
      "outputs": [],
      "stateMutability": "nonpayable",
      "type": "function"
    },
    {
      "inputs": [
        {
          "internalType": "bytes4",
          "name": "interfaceId",
          "type": "bytes4"
        }
      ],
      "name": "supportsInterface",
      "outputs": [
        {
          "internalType": "bool",
          "name": "",
          "type": "bool"
        }
      ],
      "stateMutability": "view",
      "type": "function"
    },
    {
      "inputs": [],
      "name": "symbol",
      "outputs": [
        {
          "internalType": "string",
          "name": "",
          "type": "string"
        }
      ],
      "stateMutability": "view",
      "type": "function"
    },
    {
      "inputs": [
        {
          "internalType": "uint256",
          "name": "tokenId",
          "type": "uint256"
        }
      ],
      "name": "tokenURI",
      "outputs": [
        {
          "internalType": "string",
          "name": "",
          "type": "string"
        }
      ],
      "stateMutability": "view",
      "type": "function"
    },
    {
      "inputs": [
        {
          "internalType": "address",
          "name": "from",
          "type": "address"
        },
        {
          "internalType": "address",
          "name": "to",
          "type": "address"
        },
        {
          "internalType": "uint256",
          "name": "tokenId",
          "type": "uint256"
        }
      ],
      "name": "transferFrom",
      "outputs": [],
      "stateMutability": "nonpayable",
      "type": "function"
    }
  ],
  "bytecode": "0x60806040523480156200001157600080fd5b506040516200351e3803806200351e83398181016040528101906200003791906200044b565b6040518060400160405280601281526020017f54727573746966696564497373756572763500000000000000000000000000008152506040518060400160405280600481526020017f54497635000000000000000000000000000000000000000000000000000000008152508160009080519060200190620000bb92919062000229565b508060019080519060200190620000d492919062000229565b50505033600960006101000a81548173ffffffffffffffffffffffffffffffffffffffff021916908373ffffffffffffffffffffffffffffffffffffffff16021790555060005b82518161ffff1610156200022057818161ffff168151811062000167577f4e487b7100000000000000000000000000000000000000000000000000000000600052603260045260246000fd5b6020026020010151600a6000858461ffff1681518110620001b1577f4e487b7100000000000000000000000000000000000000000000000000000000600052603260045260246000fd5b602002602001015173ffffffffffffffffffffffffffffffffffffffff1673ffffffffffffffffffffffffffffffffffffffff16815260200190815260200160002060006101000a81548160ff02191690831515021790555080806200021790620005ff565b9150506200011b565b50505062000701565b828054620002379062000593565b90600052602060002090601f0160209004810192826200025b5760008555620002a7565b82601f106200027657805160ff1916838001178555620002a7565b82800160010185558215620002a7579182015b82811115620002a657825182559160200191906001019062000289565b5b509050620002b69190620002ba565b5090565b5b80821115620002d5576000816000905550600101620002bb565b5090565b6000620002f0620002ea84620004e7565b620004be565b905080838252602082019050828560208602820111156200031057600080fd5b60005b85811015620003445781620003298882620003c3565b84526020840193506020830192505060018101905062000313565b5050509392505050565b6000620003656200035f8462000516565b620004be565b905080838252602082019050828560208602820111156200038557600080fd5b60005b85811015620003b957816200039e888262000434565b84526020840193506020830192505060018101905062000388565b5050509392505050565b600081519050620003d481620006cd565b92915050565b600082601f830112620003ec57600080fd5b8151620003fe848260208601620002d9565b91505092915050565b600082601f8301126200041957600080fd5b81516200042b8482602086016200034e565b91505092915050565b6000815190506200044581620006e7565b92915050565b600080604083850312156200045f57600080fd5b600083015167ffffffffffffffff8111156200047a57600080fd5b6200048885828601620003da565b925050602083015167ffffffffffffffff811115620004a657600080fd5b620004b48582860162000407565b9150509250929050565b6000620004ca620004dd565b9050620004d88282620005c9565b919050565b6000604051905090565b600067ffffffffffffffff8211156200050557620005046200068d565b5b602082029050602081019050919050565b600067ffffffffffffffff8211156200053457620005336200068d565b5b602082029050602081019050919050565b6000620005528262000573565b9050919050565b60008115159050919050565b600061ffff82169050919050565b600073ffffffffffffffffffffffffffffffffffffffff82169050919050565b60006002820490506001821680620005ac57607f821691505b60208210811415620005c357620005c26200065e565b5b50919050565b620005d482620006bc565b810181811067ffffffffffffffff82111715620005f657620005f56200068d565b5b80604052505050565b60006200060c8262000565565b915061ffff8214156200062457620006236200062f565b5b600182019050919050565b7f4e487b7100000000000000000000000000000000000000000000000000000000600052601160045260246000fd5b7f4e487b7100000000000000000000000000000000000000000000000000000000600052602260045260246000fd5b7f4e487b7100000000000000000000000000000000000000000000000000000000600052604160045260246000fd5b6000601f19601f8301169050919050565b620006d88162000545565b8114620006e457600080fd5b50565b620006f28162000559565b8114620006fe57600080fd5b50565b612e0d80620007116000396000f3fe608060405234801561001057600080fd5b506004361061010b5760003560e01c806370a08231116100a2578063a21fbc9211610071578063a21fbc92146102b6578063a22cb465146102d4578063b88d4fde146102f0578063c87b56dd1461030c578063e985e9c51461033c5761010b565b806370a082311461022e5780638da5cb5b1461025e57806395d89b411461027c5780639c2901151461029a5761010b565b806323b872dd116100de57806323b872dd146101aa578063322f89e6146101c657806342842e0e146101e25780636352211e146101fe5761010b565b806301ffc9a71461011057806306fdde0314610140578063081812fc1461015e578063095ea7b31461018e575b600080fd5b61012a600480360381019061012591906120af565b61036c565b60405161013791906124df565b60405180910390f35b61014861044e565b60405161015591906124fa565b60405180910390f35b61017860048036038101906101739190612171565b6104e0565b6040516101859190612478565b60405180910390f35b6101a860048036038101906101a39190612073565b610526565b005b6101c460048036038101906101bf9190611f6d565b61063e565b005b6101e060048036038101906101db9190612101565b61069e565b005b6101fc60048036038101906101f79190611f6d565b6107cb565b005b61021860048036038101906102139190612171565b6107eb565b6040516102259190612478565b60405180910390f35b61024860048036038101906102439190611f08565b610872565b60405161025591906126dc565b60405180910390f35b61026661092a565b6040516102739190612478565b60405180910390f35b610284610950565b60405161029191906124fa565b60405180910390f35b6102b460048036038101906102af9190612037565b6109e2565b005b6102be610acd565b6040516102cb91906124df565b60405180910390f35b6102ee60048036038101906102e99190612037565b610b21565b005b61030a60048036038101906103059190611fbc565b610b37565b005b61032660048036038101906103219190612171565b610b99565b60405161033391906124fa565b60405180910390f35b61035660048036038101906103519190611f31565b610cac565b60405161036391906124df565b60405180910390f35b60007f80ac58cd000000000000000000000000000000000000000000000000000000007bffffffffffffffffffffffffffffffffffffffffffffffffffffffff1916827bffffffffffffffffffffffffffffffffffffffffffffffffffffffff1916148061043757507f5b5e139f000000000000000000000000000000000000000000000000000000007bffffffffffffffffffffffffffffffffffffffffffffffffffffffff1916827bffffffffffffffffffffffffffffffffffffffffffffffffffffffff1916145b80610447575061044682610d40565b5b9050919050565b60606000805461045d90612877565b80601f016020809104026020016040519081016040528092919081815260200182805461048990612877565b80156104d65780601f106104ab576101008083540402835291602001916104d6565b820191906000526020600020905b8154815290600101906020018083116104b957829003601f168201915b5050505050905090565b60006104eb82610daa565b6004600083815260200190815260200160002060009054906101000a900473ffffffffffffffffffffffffffffffffffffffff169050919050565b6000610531826107eb565b90508073ffffffffffffffffffffffffffffffffffffffff168373ffffffffffffffffffffffffffffffffffffffff1614156105a2576040517f08c379a00000000000000000000000000000000000000000000000000000000081526004016105999061269c565b60405180910390fd5b8073ffffffffffffffffffffffffffffffffffffffff166105c1610df5565b73ffffffffffffffffffffffffffffffffffffffff1614806105f057506105ef816105ea610df5565b610cac565b5b61062f576040517f08c379a0000000000000000000000000000000000000000000000000000000008152600401610626906126bc565b60405180910390fd5b6106398383610dfd565b505050565b61064f610649610df5565b82610eb6565b61068e576040517f08c379a00000000000000000000000000000000000000000000000000000000081526004016106859061251c565b60405180910390fd5b610699838383610f4b565b505050565b600a60003373ffffffffffffffffffffffffffffffffffffffff1673ffffffffffffffffffffffffffffffffffffffff16815260200190815260200160002060009054906101000a900460ff1661072a576040517f08c379a0000000000000000000000000000000000000000000000000000000008152600401610721906125fc565b60405180910390fd5b60005b828290508110156107c5576107426007611245565b600061074e600761125b565b90506107a784848481811061078c577f4e487b7100000000000000000000000000000000000000000000000000000000600052603260045260246000fd5b90506020020160208101906107a19190611f08565b82611269565b6107b18186611487565b5080806107bd906128da565b91505061072d565b50505050565b6107e683838360405180602001604052806000815250610b37565b505050565b6000806107f7836114fb565b9050600073ffffffffffffffffffffffffffffffffffffffff168173ffffffffffffffffffffffffffffffffffffffff161415610869576040517f08c379a00000000000000000000000000000000000000000000000000000000081526004016108609061267c565b60405180910390fd5b80915050919050565b60008073ffffffffffffffffffffffffffffffffffffffff168273ffffffffffffffffffffffffffffffffffffffff1614156108e3576040517f08c379a00000000000000000000000000000000000000000000000000000000081526004016108da906125dc565b60405180910390fd5b600360008373ffffffffffffffffffffffffffffffffffffffff1673ffffffffffffffffffffffffffffffffffffffff168152602001908152602001600020549050919050565b600960009054906101000a900473ffffffffffffffffffffffffffffffffffffffff1681565b60606001805461095f90612877565b80601f016020809104026020016040519081016040528092919081815260200182805461098b90612877565b80156109d85780601f106109ad576101008083540402835291602001916109d8565b820191906000526020600020905b8154815290600101906020018083116109bb57829003601f168201915b5050505050905090565b600960009054906101000a900473ffffffffffffffffffffffffffffffffffffffff1673ffffffffffffffffffffffffffffffffffffffff163373ffffffffffffffffffffffffffffffffffffffff1614610a72576040517f08c379a0000000000000000000000000000000000000000000000000000000008152600401610a699061265c565b60405180910390fd5b80600a60008473ffffffffffffffffffffffffffffffffffffffff1673ffffffffffffffffffffffffffffffffffffffff16815260200190815260200160002060006101000a81548160ff0219169083151502179055505050565b6000600a60003373ffffffffffffffffffffffffffffffffffffffff1673ffffffffffffffffffffffffffffffffffffffff16815260200190815260200160002060009054906101000a900460ff16905090565b610b33610b2c610df5565b8383611538565b5050565b610b48610b42610df5565b83610eb6565b610b87576040517f08c379a0000000000000000000000000000000000000000000000000000000008152600401610b7e9061251c565b60405180910390fd5b610b93848484846116a5565b50505050565b6060610ba482610daa565b6000600660008481526020019081526020016000208054610bc490612877565b80601f0160208091040260200160405190810160405280929190818152602001828054610bf090612877565b8015610c3d5780601f10610c1257610100808354040283529160200191610c3d565b820191906000526020600020905b815481529060010190602001808311610c2057829003601f168201915b505050505090506000610c4e611701565b9050600081511415610c64578192505050610ca7565b600082511115610c99578082604051602001610c81929190612454565b60405160208183030381529060405292505050610ca7565b610ca284611718565b925050505b919050565b6000600560008473ffffffffffffffffffffffffffffffffffffffff1673ffffffffffffffffffffffffffffffffffffffff16815260200190815260200160002060008373ffffffffffffffffffffffffffffffffffffffff1673ffffffffffffffffffffffffffffffffffffffff16815260200190815260200160002060009054906101000a900460ff16905092915050565b60007f01ffc9a7000000000000000000000000000000000000000000000000000000007bffffffffffffffffffffffffffffffffffffffffffffffffffffffff1916827bffffffffffffffffffffffffffffffffffffffffffffffffffffffff1916149050919050565b610db381611780565b610df2576040517f08c379a0000000000000000000000000000000000000000000000000000000008152600401610de99061267c565b60405180910390fd5b50565b600033905090565b816004600083815260200190815260200160002060006101000a81548173ffffffffffffffffffffffffffffffffffffffff021916908373ffffffffffffffffffffffffffffffffffffffff160217905550808273ffffffffffffffffffffffffffffffffffffffff16610e70836107eb565b73ffffffffffffffffffffffffffffffffffffffff167f8c5be1e5ebec7d5bd14f71427d1e84f3dd0314c0f7b2291e5b200ac8c7c3b92560405160405180910390a45050565b600080610ec2836107eb565b90508073ffffffffffffffffffffffffffffffffffffffff168473ffffffffffffffffffffffffffffffffffffffff161480610f045750610f038185610cac565b5b80610f4257508373ffffffffffffffffffffffffffffffffffffffff16610f2a846104e0565b73ffffffffffffffffffffffffffffffffffffffff16145b91505092915050565b8273ffffffffffffffffffffffffffffffffffffffff16610f6b826107eb565b73ffffffffffffffffffffffffffffffffffffffff1614610fc1576040517f08c379a0000000000000000000000000000000000000000000000000000000008152600401610fb89061255c565b60405180910390fd5b600073ffffffffffffffffffffffffffffffffffffffff168273ffffffffffffffffffffffffffffffffffffffff161415611031576040517f08c379a00000000000000000000000000000000000000000000000000000000081526004016110289061259c565b60405180910390fd5b61103e83838360016117c1565b8273ffffffffffffffffffffffffffffffffffffffff1661105e826107eb565b73ffffffffffffffffffffffffffffffffffffffff16146110b4576040517f08c379a00000000000000000000000000000000000000000000000000000000081526004016110ab9061255c565b60405180910390fd5b6004600082815260200190815260200160002060006101000a81549073ffffffffffffffffffffffffffffffffffffffff02191690556001600360008573ffffffffffffffffffffffffffffffffffffffff1673ffffffffffffffffffffffffffffffffffffffff168152602001908152602001600020600082825403925050819055506001600360008473ffffffffffffffffffffffffffffffffffffffff1673ffffffffffffffffffffffffffffffffffffffff16815260200190815260200160002060008282540192505081905550816002600083815260200190815260200160002060006101000a81548173ffffffffffffffffffffffffffffffffffffffff021916908373ffffffffffffffffffffffffffffffffffffffff160217905550808273ffffffffffffffffffffffffffffffffffffffff168473ffffffffffffffffffffffffffffffffffffffff167fddf252ad1be2c89b69c2b068fc378daa952ba7f163c4a11628f55a4df523b3ef60405160405180910390a461124083838360016117c7565b505050565b6001816000016000828254019250508190555050565b600081600001549050919050565b600073ffffffffffffffffffffffffffffffffffffffff168273ffffffffffffffffffffffffffffffffffffffff1614156112d9576040517f08c379a00000000000000000000000000000000000000000000000000000000081526004016112d09061263c565b60405180910390fd5b6112e281611780565b15611322576040517f08c379a00000000000000000000000000000000000000000000000000000000081526004016113199061257c565b60405180910390fd5b6113306000838360016117c1565b61133981611780565b15611379576040517f08c379a00000000000000000000000000000000000000000000000000000000081526004016113709061257c565b60405180910390fd5b6001600360008473ffffffffffffffffffffffffffffffffffffffff1673ffffffffffffffffffffffffffffffffffffffff16815260200190815260200160002060008282540192505081905550816002600083815260200190815260200160002060006101000a81548173ffffffffffffffffffffffffffffffffffffffff021916908373ffffffffffffffffffffffffffffffffffffffff160217905550808273ffffffffffffffffffffffffffffffffffffffff16600073ffffffffffffffffffffffffffffffffffffffff167fddf252ad1be2c89b69c2b068fc378daa952ba7f163c4a11628f55a4df523b3ef60405160405180910390a46114836000838360016117c7565b5050565b61149082611780565b6114cf576040517f08c379a00000000000000000000000000000000000000000000000000000000081526004016114c69061261c565b60405180910390fd5b806006600084815260200190815260200160002090805190602001906114f6929190611ce2565b505050565b60006002600083815260200190815260200160002060009054906101000a900473ffffffffffffffffffffffffffffffffffffffff169050919050565b8173ffffffffffffffffffffffffffffffffffffffff168373ffffffffffffffffffffffffffffffffffffffff1614156115a7576040517f08c379a000000000000000000000000000000000000000000000000000000000815260040161159e906125bc565b60405180910390fd5b80600560008573ffffffffffffffffffffffffffffffffffffffff1673ffffffffffffffffffffffffffffffffffffffff16815260200190815260200160002060008473ffffffffffffffffffffffffffffffffffffffff1673ffffffffffffffffffffffffffffffffffffffff16815260200190815260200160002060006101000a81548160ff0219169083151502179055508173ffffffffffffffffffffffffffffffffffffffff168373ffffffffffffffffffffffffffffffffffffffff167f17307eab39ab6107e8899845ad3d59bd9653f200f220920489ca2b5937696c318360405161169891906124df565b60405180910390a3505050565b6116b0848484610f4b565b6116bc848484846117cd565b6116fb576040517f08c379a00000000000000000000000000000000000000000000000000000000081526004016116f29061253c565b60405180910390fd5b50505050565b606060405180602001604052806000815250905090565b606061172382610daa565b600061172d611701565b9050600081511161174d5760405180602001604052806000815250611778565b8061175784611964565b604051602001611768929190612454565b6040516020818303038152906040525b915050919050565b60008073ffffffffffffffffffffffffffffffffffffffff166117a2836114fb565b73ffffffffffffffffffffffffffffffffffffffff1614159050919050565b50505050565b50505050565b60006117ee8473ffffffffffffffffffffffffffffffffffffffff16611a88565b15611957578373ffffffffffffffffffffffffffffffffffffffff1663150b7a02611817610df5565b8786866040518563ffffffff1660e01b81526004016118399493929190612493565b602060405180830381600087803b15801561185357600080fd5b505af192505050801561188457506040513d601f19601f8201168201806040525081019061188191906120d8565b60015b611907573d80600081146118b4576040519150601f19603f3d011682016040523d82523d6000602084013e6118b9565b606091505b506000815114156118ff576040517f08c379a00000000000000000000000000000000000000000000000000000000081526004016118f69061253c565b60405180910390fd5b805181602001fd5b63150b7a0260e01b7bffffffffffffffffffffffffffffffffffffffffffffffffffffffff1916817bffffffffffffffffffffffffffffffffffffffffffffffffffffffff19161491505061195c565b600190505b949350505050565b60606000600161197384611aab565b01905060008167ffffffffffffffff8111156119b8577f4e487b7100000000000000000000000000000000000000000000000000000000600052604160045260246000fd5b6040519080825280601f01601f1916602001820160405280156119ea5781602001600182028036833780820191505090505b509050600082602001820190505b600115611a7d578080600190039150507f3031323334353637383961626364656600000000000000000000000000000000600a86061a8153600a8581611a67577f4e487b7100000000000000000000000000000000000000000000000000000000600052601260045260246000fd5b0494506000851415611a7857611a7d565b6119f8565b819350505050919050565b6000808273ffffffffffffffffffffffffffffffffffffffff163b119050919050565b600080600090507a184f03e93ff9f4daa797ed6e38ed64bf6a1f0100000000000000008310611b2f577a184f03e93ff9f4daa797ed6e38ed64bf6a1f0100000000000000008381611b25577f4e487b7100000000000000000000000000000000000000000000000000000000600052601260045260246000fd5b0492506040810190505b6d04ee2d6d415b85acef81000000008310611b92576d04ee2d6d415b85acef81000000008381611b88577f4e487b7100000000000000000000000000000000000000000000000000000000600052601260045260246000fd5b0492506020810190505b662386f26fc100008310611be757662386f26fc100008381611bdd577f4e487b7100000000000000000000000000000000000000000000000000000000600052601260045260246000fd5b0492506010810190505b6305f5e1008310611c36576305f5e1008381611c2c577f4e487b7100000000000000000000000000000000000000000000000000000000600052601260045260246000fd5b0492506008810190505b6127108310611c81576127108381611c77577f4e487b7100000000000000000000000000000000000000000000000000000000600052601260045260246000fd5b0492506004810190505b60648310611cca5760648381611cc0577f4e487b7100000000000000000000000000000000000000000000000000000000600052601260045260246000fd5b0492506002810190505b600a8310611cd9576001810190505b80915050919050565b828054611cee90612877565b90600052602060002090601f016020900481019282611d105760008555611d57565b82601f10611d2957805160ff1916838001178555611d57565b82800160010185558215611d57579182015b82811115611d56578251825591602001919060010190611d3b565b5b509050611d649190611d68565b5090565b5b80821115611d81576000816000905550600101611d69565b5090565b6000611d98611d938461271c565b6126f7565b905082815260208101848484011115611db057600080fd5b611dbb848285612835565b509392505050565b6000611dd6611dd18461274d565b6126f7565b905082815260208101848484011115611dee57600080fd5b611df9848285612835565b509392505050565b600081359050611e1081612d7b565b92915050565b60008083601f840112611e2857600080fd5b8235905067ffffffffffffffff811115611e4157600080fd5b602083019150836020820283011115611e5957600080fd5b9250929050565b600081359050611e6f81612d92565b92915050565b600081359050611e8481612da9565b92915050565b600081519050611e9981612da9565b92915050565b600082601f830112611eb057600080fd5b8135611ec0848260208601611d85565b91505092915050565b600082601f830112611eda57600080fd5b8135611eea848260208601611dc3565b91505092915050565b600081359050611f0281612dc0565b92915050565b600060208284031215611f1a57600080fd5b6000611f2884828501611e01565b91505092915050565b60008060408385031215611f4457600080fd5b6000611f5285828601611e01565b9250506020611f6385828601611e01565b9150509250929050565b600080600060608486031215611f8257600080fd5b6000611f9086828701611e01565b9350506020611fa186828701611e01565b9250506040611fb286828701611ef3565b9150509250925092565b60008060008060808587031215611fd257600080fd5b6000611fe087828801611e01565b9450506020611ff187828801611e01565b935050604061200287828801611ef3565b925050606085013567ffffffffffffffff81111561201f57600080fd5b61202b87828801611e9f565b91505092959194509250565b6000806040838503121561204a57600080fd5b600061205885828601611e01565b925050602061206985828601611e60565b9150509250929050565b6000806040838503121561208657600080fd5b600061209485828601611e01565b92505060206120a585828601611ef3565b9150509250929050565b6000602082840312156120c157600080fd5b60006120cf84828501611e75565b91505092915050565b6000602082840312156120ea57600080fd5b60006120f884828501611e8a565b91505092915050565b60008060006040848603121561211657600080fd5b600084013567ffffffffffffffff81111561213057600080fd5b61213c86828701611ec9565b935050602084013567ffffffffffffffff81111561215957600080fd5b61216586828701611e16565b92509250509250925092565b60006020828403121561218357600080fd5b600061219184828501611ef3565b91505092915050565b6121a3816127c1565b82525050565b6121b2816127d3565b82525050565b60006121c38261277e565b6121cd8185612794565b93506121dd818560208601612844565b6121e6816129b0565b840191505092915050565b60006121fc82612789565b61220681856127a5565b9350612216818560208601612844565b61221f816129b0565b840191505092915050565b600061223582612789565b61223f81856127b6565b935061224f818560208601612844565b80840191505092915050565b6000612268602d836127a5565b9150612273826129c1565b604082019050919050565b600061228b6032836127a5565b915061229682612a10565b604082019050919050565b60006122ae6025836127a5565b91506122b982612a5f565b604082019050919050565b60006122d1601c836127a5565b91506122dc82612aae565b602082019050919050565b60006122f46024836127a5565b91506122ff82612ad7565b604082019050919050565b60006123176019836127a5565b915061232282612b26565b602082019050919050565b600061233a6029836127a5565b915061234582612b4f565b604082019050919050565b600061235d6027836127a5565b915061236882612b9e565b604082019050919050565b6000612380602e836127a5565b915061238b82612bed565b604082019050919050565b60006123a36020836127a5565b91506123ae82612c3c565b602082019050919050565b60006123c6602a836127a5565b91506123d182612c65565b604082019050919050565b60006123e96018836127a5565b91506123f482612cb4565b602082019050919050565b600061240c6021836127a5565b915061241782612cdd565b604082019050919050565b600061242f603d836127a5565b915061243a82612d2c565b604082019050919050565b61244e8161282b565b82525050565b6000612460828561222a565b915061246c828461222a565b91508190509392505050565b600060208201905061248d600083018461219a565b92915050565b60006080820190506124a8600083018761219a565b6124b5602083018661219a565b6124c26040830185612445565b81810360608301526124d481846121b8565b905095945050505050565b60006020820190506124f460008301846121a9565b92915050565b6000602082019050818103600083015261251481846121f1565b905092915050565b600060208201905081810360008301526125358161225b565b9050919050565b600060208201905081810360008301526125558161227e565b9050919050565b60006020820190508181036000830152612575816122a1565b9050919050565b60006020820190508181036000830152612595816122c4565b9050919050565b600060208201905081810360008301526125b5816122e7565b9050919050565b600060208201905081810360008301526125d58161230a565b9050919050565b600060208201905081810360008301526125f58161232d565b9050919050565b6000602082019050818103600083015261261581612350565b9050919050565b6000602082019050818103600083015261263581612373565b9050919050565b6000602082019050818103600083015261265581612396565b9050919050565b60006020820190508181036000830152612675816123b9565b9050919050565b60006020820190508181036000830152612695816123dc565b9050919050565b600060208201905081810360008301526126b5816123ff565b9050919050565b600060208201905081810360008301526126d581612422565b9050919050565b60006020820190506126f16000830184612445565b92915050565b6000612701612712565b905061270d82826128a9565b919050565b6000604051905090565b600067ffffffffffffffff82111561273757612736612981565b5b612740826129b0565b9050602081019050919050565b600067ffffffffffffffff82111561276857612767612981565b5b612771826129b0565b9050602081019050919050565b600081519050919050565b600081519050919050565b600082825260208201905092915050565b600082825260208201905092915050565b600081905092915050565b60006127cc8261280b565b9050919050565b60008115159050919050565b60007fffffffff0000000000000000000000000000000000000000000000000000000082169050919050565b600073ffffffffffffffffffffffffffffffffffffffff82169050919050565b6000819050919050565b82818337600083830152505050565b60005b83811015612862578082015181840152602081019050612847565b83811115612871576000848401525b50505050565b6000600282049050600182168061288f57607f821691505b602082108114156128a3576128a2612952565b5b50919050565b6128b2826129b0565b810181811067ffffffffffffffff821117156128d1576128d0612981565b5b80604052505050565b60006128e58261282b565b91507fffffffffffffffffffffffffffffffffffffffffffffffffffffffffffffffff82141561291857612917612923565b5b600182019050919050565b7f4e487b7100000000000000000000000000000000000000000000000000000000600052601160045260246000fd5b7f4e487b7100000000000000000000000000000000000000000000000000000000600052602260045260246000fd5b7f4e487b7100000000000000000000000000000000000000000000000000000000600052604160045260246000fd5b6000601f19601f8301169050919050565b7f4552433732313a2063616c6c6572206973206e6f7420746f6b656e206f776e6560008201527f72206f7220617070726f76656400000000000000000000000000000000000000602082015250565b7f4552433732313a207472616e7366657220746f206e6f6e20455243373231526560008201527f63656976657220696d706c656d656e7465720000000000000000000000000000602082015250565b7f4552433732313a207472616e736665722066726f6d20696e636f72726563742060008201527f6f776e6572000000000000000000000000000000000000000000000000000000602082015250565b7f4552433732313a20746f6b656e20616c7265616479206d696e74656400000000600082015250565b7f4552433732313a207472616e7366657220746f20746865207a65726f2061646460008201527f7265737300000000000000000000000000000000000000000000000000000000602082015250565b7f4552433732313a20617070726f766520746f2063616c6c657200000000000000600082015250565b7f4552433732313a2061646472657373207a65726f206973206e6f74206120766160008201527f6c6964206f776e65720000000000000000000000000000000000000000000000602082015250565b7f43616c6c6572206973206e6f7420616c6c6f77656420746f206372656174652060008201527f746f6b656e732100000000000000000000000000000000000000000000000000602082015250565b7f45524337323155524953746f726167653a2055524920736574206f66206e6f6e60008201527f6578697374656e7420746f6b656e000000000000000000000000000000000000602082015250565b7f4552433732313a206d696e7420746f20746865207a65726f2061646472657373600082015250565b7f4f6e6c7920636f6e7472616374206f776e65722063616e2063616c6c2074686960008201527f732066756e6374696f6e00000000000000000000000000000000000000000000602082015250565b7f4552433732313a20696e76616c696420746f6b656e2049440000000000000000600082015250565b7f4552433732313a20617070726f76616c20746f2063757272656e74206f776e6560008201527f7200000000000000000000000000000000000000000000000000000000000000602082015250565b7f4552433732313a20617070726f76652063616c6c6572206973206e6f7420746f60008201527f6b656e206f776e6572206f7220617070726f76656420666f7220616c6c000000602082015250565b612d84816127c1565b8114612d8f57600080fd5b50565b612d9b816127d3565b8114612da657600080fd5b50565b612db2816127df565b8114612dbd57600080fd5b50565b612dc98161282b565b8114612dd457600080fd5b5056fea26469706673582212208a5d2c6bfe463c565dcb2c976f2e808579600100d4813d24ec7e2eac728d51e964736f6c63430008040033",
  "linkReferences": {},
  "deployedLinkReferences": {}
}