{
  "_format": "hh-sol-artifact-1",
  "contractName": "Trustified",
  "sourceName": "contracts/Trustified.sol",
  "abi": [
    {
      "inputs": [
        {
          "internalType": "address",
          "name": "_issuernftaddress",
          "type": "address"
        },
        {
          "internalType": "address[]",
          "name": "_owners",
          "type": "address[]"
        },
        {
          "internalType": "uint256",
          "name": "_numConfirmationsRequired",
          "type": "uint256"
        }
      ],
      "stateMutability": "nonpayable",
      "type": "constructor"
    },
    {
      "anonymous": false,
      "inputs": [
        {
          "indexed": true,
          "internalType": "address",
          "name": "owner",
          "type": "address"
        },
        {
          "indexed": true,
          "internalType": "address",
          "name": "approved",
          "type": "address"
        },
        {
          "indexed": true,
          "internalType": "uint256",
          "name": "tokenId",
          "type": "uint256"
        }
      ],
      "name": "Approval",
      "type": "event"
    },
    {
      "anonymous": false,
      "inputs": [
        {
          "indexed": true,
          "internalType": "address",
          "name": "owner",
          "type": "address"
        },
        {
          "indexed": true,
          "internalType": "address",
          "name": "operator",
          "type": "address"
        },
        {
          "indexed": false,
          "internalType": "bool",
          "name": "approved",
          "type": "bool"
        }
      ],
      "name": "ApprovalForAll",
      "type": "event"
    },
    {
      "anonymous": false,
      "inputs": [
        {
          "indexed": true,
          "internalType": "address",
          "name": "owner",
          "type": "address"
        },
        {
          "indexed": true,
          "internalType": "uint256",
          "name": "txIndex",
          "type": "uint256"
        },
        {
          "indexed": true,
          "internalType": "address",
          "name": "to",
          "type": "address"
        },
        {
          "indexed": false,
          "internalType": "uint256",
          "name": "amount",
          "type": "uint256"
        }
      ],
      "name": "SubmitTransaction",
      "type": "event"
    },
    {
      "anonymous": false,
      "inputs": [
        {
          "indexed": true,
          "internalType": "uint256",
          "name": "eventId",
          "type": "uint256"
        },
        {
          "indexed": true,
          "internalType": "address",
          "name": "issuer",
          "type": "address"
        }
      ],
      "name": "TokensCreated",
      "type": "event"
    },
    {
      "anonymous": false,
      "inputs": [
        {
          "indexed": true,
          "internalType": "address",
          "name": "from",
          "type": "address"
        },
        {
          "indexed": true,
          "internalType": "address",
          "name": "to",
          "type": "address"
        },
        {
          "indexed": true,
          "internalType": "uint256",
          "name": "tokenId",
          "type": "uint256"
        }
      ],
      "name": "Transfer",
      "type": "event"
    },
    {
      "inputs": [
        {
          "internalType": "address[]",
          "name": "wallets",
          "type": "address[]"
        },
        {
          "internalType": "uint256",
          "name": "eventId",
          "type": "uint256"
        },
        {
          "internalType": "string[]",
          "name": "tokenURIs",
          "type": "string[]"
        }
      ],
      "name": "airdropnfts",
      "outputs": [],
      "stateMutability": "nonpayable",
      "type": "function"
    },
    {
      "inputs": [
        {
          "internalType": "address",
          "name": "to",
          "type": "address"
        },
        {
          "internalType": "uint256",
          "name": "tokenId",
          "type": "uint256"
        }
      ],
      "name": "approve",
      "outputs": [],
      "stateMutability": "nonpayable",
      "type": "function"
    },
    {
      "inputs": [
        {
          "internalType": "address",
          "name": "owner",
          "type": "address"
        }
      ],
      "name": "balanceOf",
      "outputs": [
        {
          "internalType": "uint256",
          "name": "",
          "type": "uint256"
        }
      ],
      "stateMutability": "view",
      "type": "function"
    },
    {
      "inputs": [
        {
          "internalType": "uint256",
          "name": "quantity",
          "type": "uint256"
        },
        {
          "internalType": "bool",
          "name": "_nonTransferable",
          "type": "bool"
        }
      ],
      "name": "bulkMintERC721",
      "outputs": [],
      "stateMutability": "payable",
      "type": "function"
    },
    {
      "inputs": [
        {
          "internalType": "uint256",
          "name": "_txIndex",
          "type": "uint256"
        }
      ],
      "name": "confirmTransaction",
      "outputs": [],
      "stateMutability": "nonpayable",
      "type": "function"
    },
    {
      "inputs": [
        {
          "internalType": "uint256",
          "name": "tokenId",
          "type": "uint256"
        }
      ],
      "name": "getApproved",
      "outputs": [
        {
          "internalType": "address",
          "name": "",
          "type": "address"
        }
      ],
      "stateMutability": "view",
      "type": "function"
    },
    {
      "inputs": [],
      "name": "getContractBalance",
      "outputs": [
        {
          "internalType": "uint256",
          "name": "",
          "type": "uint256"
        }
      ],
      "stateMutability": "view",
      "type": "function"
    },
    {
      "inputs": [
        {
          "internalType": "uint256",
          "name": "eventId",
          "type": "uint256"
        }
      ],
      "name": "getEventTokens",
      "outputs": [
        {
          "internalType": "uint256[]",
          "name": "",
          "type": "uint256[]"
        }
      ],
      "stateMutability": "view",
      "type": "function"
    },
    {
      "inputs": [
        {
          "internalType": "uint256",
          "name": "_txIndex",
          "type": "uint256"
        }
      ],
      "name": "getTransaction",
      "outputs": [
        {
          "internalType": "address",
          "name": "to",
          "type": "address"
        },
        {
          "internalType": "uint256",
          "name": "amount",
          "type": "uint256"
        },
        {
          "internalType": "bool",
          "name": "executed",
          "type": "bool"
        },
        {
          "internalType": "uint256",
          "name": "numConfirmations",
          "type": "uint256"
        }
      ],
      "stateMutability": "view",
      "type": "function"
    },
    {
      "inputs": [
        {
          "internalType": "address",
          "name": "owner",
          "type": "address"
        },
        {
          "internalType": "address",
          "name": "operator",
          "type": "address"
        }
      ],
      "name": "isApprovedForAll",
      "outputs": [
        {
          "internalType": "bool",
          "name": "",
          "type": "bool"
        }
      ],
      "stateMutability": "view",
      "type": "function"
    },
    {
      "inputs": [
        {
          "internalType": "uint256",
          "name": "",
          "type": "uint256"
        },
        {
          "internalType": "address",
          "name": "",
          "type": "address"
        }
      ],
      "name": "isConfirmed",
      "outputs": [
        {
          "internalType": "bool",
          "name": "",
          "type": "bool"
        }
      ],
      "stateMutability": "view",
      "type": "function"
    },
    {
      "inputs": [
        {
          "internalType": "address",
          "name": "",
          "type": "address"
        }
      ],
      "name": "isOwner",
      "outputs": [
        {
          "internalType": "bool",
          "name": "",
          "type": "bool"
        }
      ],
      "stateMutability": "view",
      "type": "function"
    },
    {
      "inputs": [],
      "name": "name",
      "outputs": [
        {
          "internalType": "string",
          "name": "",
          "type": "string"
        }
      ],
      "stateMutability": "view",
      "type": "function"
    },
    {
      "inputs": [],
      "name": "numConfirmationsRequired",
      "outputs": [
        {
          "internalType": "uint256",
          "name": "",
          "type": "uint256"
        }
      ],
      "stateMutability": "view",
      "type": "function"
    },
    {
      "inputs": [
        {
          "internalType": "uint256",
          "name": "tokenId",
          "type": "uint256"
        }
      ],
      "name": "ownerOf",
      "outputs": [
        {
          "internalType": "address",
          "name": "",
          "type": "address"
        }
      ],
      "stateMutability": "view",
      "type": "function"
    },
    {
      "inputs": [
        {
          "internalType": "uint256",
          "name": "",
          "type": "uint256"
        }
      ],
      "name": "owners",
      "outputs": [
        {
          "internalType": "address",
          "name": "",
          "type": "address"
        }
      ],
      "stateMutability": "view",
      "type": "function"
    },
    {
      "inputs": [
        {
          "internalType": "string",
          "name": "tokenURI",
          "type": "string"
        },
        {
          "internalType": "uint256",
          "name": "tokenId",
          "type": "uint256"
        },
        {
          "internalType": "address",
          "name": "to",
          "type": "address"
        }
      ],
      "name": "safeMint",
      "outputs": [],
      "stateMutability": "nonpayable",
      "type": "function"
    },
    {
      "inputs": [
        {
          "internalType": "address",
          "name": "from",
          "type": "address"
        },
        {
          "internalType": "address",
          "name": "to",
          "type": "address"
        },
        {
          "internalType": "uint256",
          "name": "tokenId",
          "type": "uint256"
        }
      ],
      "name": "safeTransferFrom",
      "outputs": [],
      "stateMutability": "nonpayable",
      "type": "function"
    },
    {
      "inputs": [
        {
          "internalType": "address",
          "name": "from",
          "type": "address"
        },
        {
          "internalType": "address",
          "name": "to",
          "type": "address"
        },
        {
          "internalType": "uint256",
          "name": "tokenId",
          "type": "uint256"
        },
        {
          "internalType": "bytes",
          "name": "data",
          "type": "bytes"
        }
      ],
      "name": "safeTransferFrom",
      "outputs": [],
      "stateMutability": "nonpayable",
      "type": "function"
    },
    {
      "inputs": [
        {
          "internalType": "address",
          "name": "operator",
          "type": "address"
        },
        {
          "internalType": "bool",
          "name": "approved",
          "type": "bool"
        }
      ],
      "name": "setApprovalForAll",
      "outputs": [],
      "stateMutability": "nonpayable",
      "type": "function"
    },
    {
      "inputs": [
        {
          "internalType": "address",
          "name": "_to",
          "type": "address"
        },
        {
          "internalType": "uint256",
          "name": "_amount",
          "type": "uint256"
        }
      ],
      "name": "submitTransaction",
      "outputs": [],
      "stateMutability": "nonpayable",
      "type": "function"
    },
    {
      "inputs": [
        {
          "internalType": "bytes4",
          "name": "interfaceId",
          "type": "bytes4"
        }
      ],
      "name": "supportsInterface",
      "outputs": [
        {
          "internalType": "bool",
          "name": "",
          "type": "bool"
        }
      ],
      "stateMutability": "view",
      "type": "function"
    },
    {
      "inputs": [],
      "name": "symbol",
      "outputs": [
        {
          "internalType": "string",
          "name": "",
          "type": "string"
        }
      ],
      "stateMutability": "view",
      "type": "function"
    },
    {
      "inputs": [
        {
          "internalType": "uint256",
          "name": "tokenId",
          "type": "uint256"
        }
      ],
      "name": "tokenURI",
      "outputs": [
        {
          "internalType": "string",
          "name": "",
          "type": "string"
        }
      ],
      "stateMutability": "view",
      "type": "function"
    },
    {
      "inputs": [
        {
          "internalType": "uint256",
          "name": "",
          "type": "uint256"
        }
      ],
      "name": "transactions",
      "outputs": [
        {
          "internalType": "address",
          "name": "to",
          "type": "address"
        },
        {
          "internalType": "uint256",
          "name": "amount",
          "type": "uint256"
        },
        {
          "internalType": "bool",
          "name": "executed",
          "type": "bool"
        },
        {
          "internalType": "uint256",
          "name": "numConfirmations",
          "type": "uint256"
        }
      ],
      "stateMutability": "view",
      "type": "function"
    },
    {
      "inputs": [
        {
          "internalType": "address",
          "name": "from",
          "type": "address"
        },
        {
          "internalType": "address",
          "name": "to",
          "type": "address"
        },
        {
          "internalType": "uint256",
          "name": "tokenId",
          "type": "uint256"
        }
      ],
      "name": "transferFrom",
      "outputs": [],
      "stateMutability": "nonpayable",
      "type": "function"
    },
    {
      "inputs": [
        {
          "internalType": "uint256",
          "name": "_listingPrice",
          "type": "uint256"
        }
      ],
      "name": "updateListingPrice",
      "outputs": [],
      "stateMutability": "nonpayable",
      "type": "function"
    },
    {
      "inputs": [
        {
          "internalType": "uint256",
          "name": "_txIndex",
          "type": "uint256"
        }
      ],
      "name": "withdrawFunds",
      "outputs": [],
      "stateMutability": "nonpayable",
      "type": "function"
    },
    {
      "stateMutability": "payable",
      "type": "receive"
    }
  ],
  "bytecode": "0x608060405260006009553480156200001657600080fd5b506040516200576b3803806200576b83398181016040528101906200003c919062000579565b6040518060400160405280600c81526020017f54727573746966696564763500000000000000000000000000000000000000008152506040518060400160405280600581526020017f54464476350000000000000000000000000000000000000000000000000000008152508160009080519060200190620000c0929190620003f9565b508060019080519060200190620000d9929190620003f9565b505050600160088190555082600a60006101000a81548173ffffffffffffffffffffffffffffffffffffffff021916908373ffffffffffffffffffffffffffffffffffffffff16021790555060008251116200016c576040517f08c379a00000000000000000000000000000000000000000000000000000000081526004016200016390620006a6565b60405180910390fd5b6000811180156200017e575081518111155b620001c0576040517f08c379a0000000000000000000000000000000000000000000000000000000008152600401620001b790620006ea565b60405180910390fd5b60005b8251811015620003e857600083828151811062000209577f4e487b7100000000000000000000000000000000000000000000000000000000600052603260045260246000fd5b60200260200101519050600073ffffffffffffffffffffffffffffffffffffffff168173ffffffffffffffffffffffffffffffffffffffff16141562000286576040517f08c379a00000000000000000000000000000000000000000000000000000000081526004016200027d90620006c8565b60405180910390fd5b600e60008273ffffffffffffffffffffffffffffffffffffffff1673ffffffffffffffffffffffffffffffffffffffff16815260200190815260200160002060009054906101000a900460ff161562000316576040517f08c379a00000000000000000000000000000000000000000000000000000000081526004016200030d9062000684565b60405180910390fd5b6001600e60008373ffffffffffffffffffffffffffffffffffffffff1673ffffffffffffffffffffffffffffffffffffffff16815260200190815260200160002060006101000a81548160ff021916908315150217905550600d819080600181540180825580915050600190039060005260206000200160009091909190916101000a81548173ffffffffffffffffffffffffffffffffffffffff021916908373ffffffffffffffffffffffffffffffffffffffff160217905550508080620003df906200081f565b915050620001c3565b5080600f8190555050505062000a09565b8280546200040790620007b3565b90600052602060002090601f0160209004810192826200042b576000855562000477565b82601f106200044657805160ff191683800117855562000477565b8280016001018555821562000477579182015b828111156200047657825182559160200191906001019062000459565b5b5090506200048691906200048a565b5090565b5b80821115620004a55760008160009055506001016200048b565b5090565b6000620004c0620004ba8462000735565b6200070c565b90508083825260208201905082856020860282011115620004e057600080fd5b60005b85811015620005145781620004f988826200051e565b845260208401935060208301925050600181019050620004e3565b5050509392505050565b6000815190506200052f81620009d5565b92915050565b600082601f8301126200054757600080fd5b815162000559848260208601620004a9565b91505092915050565b6000815190506200057381620009ef565b92915050565b6000806000606084860312156200058f57600080fd5b60006200059f868287016200051e565b935050602084015167ffffffffffffffff811115620005bd57600080fd5b620005cb8682870162000535565b9250506040620005de8682870162000562565b9150509250925092565b6000620005f760108362000764565b915062000604826200090b565b602082019050919050565b60006200061e600f8362000764565b91506200062b8262000934565b602082019050919050565b600062000645600d8362000764565b915062000652826200095d565b602082019050919050565b60006200066c60288362000764565b9150620006798262000986565b604082019050919050565b600060208201905081810360008301526200069f81620005e8565b9050919050565b60006020820190508181036000830152620006c1816200060f565b9050919050565b60006020820190508181036000830152620006e38162000636565b9050919050565b6000602082019050818103600083015262000705816200065d565b9050919050565b6000620007186200072b565b9050620007268282620007e9565b919050565b6000604051905090565b600067ffffffffffffffff821115620007535762000752620008cb565b5b602082029050602081019050919050565b600082825260208201905092915050565b6000620007828262000789565b9050919050565b600073ffffffffffffffffffffffffffffffffffffffff82169050919050565b6000819050919050565b60006002820490506001821680620007cc57607f821691505b60208210811415620007e357620007e26200089c565b5b50919050565b620007f482620008fa565b810181811067ffffffffffffffff82111715620008165762000815620008cb565b5b80604052505050565b60006200082c82620007a9565b91507fffffffffffffffffffffffffffffffffffffffffffffffffffffffffffffffff8214156200086257620008616200086d565b5b600182019050919050565b7f4e487b7100000000000000000000000000000000000000000000000000000000600052601160045260246000fd5b7f4e487b7100000000000000000000000000000000000000000000000000000000600052602260045260246000fd5b7f4e487b7100000000000000000000000000000000000000000000000000000000600052604160045260246000fd5b6000601f19601f8301169050919050565b7f6f776e6572206e6f7420756e6971756500000000000000000000000000000000600082015250565b7f6f776e6572732072657175697265640000000000000000000000000000000000600082015250565b7f696e76616c6964206f776e657200000000000000000000000000000000000000600082015250565b7f696e76616c6964206e756d626572206f6620726571756972656420636f6e666960008201527f726d6174696f6e73000000000000000000000000000000000000000000000000602082015250565b620009e08162000775565b8114620009ec57600080fd5b50565b620009fa81620007a9565b811462000a0657600080fd5b50565b614d528062000a196000396000f3fe6080604052600436106101bb5760003560e01c80636352211e116100ec578063a22cb4651161008a578063c01a8c8411610064578063c01a8c8414610666578063c87b56dd1461068f578063d0549b85146106cc578063e985e9c5146106f7576101c2565b8063a22cb465146105eb578063ae677aa314610614578063b88d4fde1461063d576101c2565b806380f59a65116100c657806380f59a651461051a5780638891d0711461055757806395d89b41146105805780639ace38c2146105ab576101c2565b80636352211e146104755780636f9fb98a146104b257806370a08231146104dd576101c2565b80631e9ee218116101595780632f54bf6e116101335780632f54bf6e146103a657806332eb80c2146103e357806333ea3dc81461040c57806342842e0e1461044c576101c2565b80631e9ee218146103245780631f9ab38d1461034057806323b872dd1461037d576101c2565b8063081812fc11610195578063081812fc1461026c578063095ea7b3146102a9578063155dd5ee146102d25780631d43b653146102fb576101c2565b806301ffc9a7146101c7578063025e7c271461020457806306fdde0314610241576101c2565b366101c257005b600080fd5b3480156101d357600080fd5b506101ee60048036038101906101e9919061384c565b610734565b6040516101fb9190613fa9565b60405180910390f35b34801561021057600080fd5b5061022b6004803603810190610226919061390a565b610816565b6040516102389190613edb565b60405180910390f35b34801561024d57600080fd5b50610256610855565b6040516102639190613fc4565b60405180910390f35b34801561027857600080fd5b50610293600480360381019061028e919061390a565b6108e7565b6040516102a09190613edb565b60405180910390f35b3480156102b557600080fd5b506102d060048036038101906102cb9190613787565b61092d565b005b3480156102de57600080fd5b506102f960048036038101906102f4919061390a565b610a45565b005b34801561030757600080fd5b50610322600480360381019061031d9190613787565b610cda565b005b61033e60048036038101906103399190613998565b610ebe565b005b34801561034c57600080fd5b506103676004803603810190610362919061390a565b6112e7565b6040516103749190613f87565b60405180910390f35b34801561038957600080fd5b506103a4600480360381019061039f9190613681565b6113f3565b005b3480156103b257600080fd5b506103cd60048036038101906103c8919061361c565b611453565b6040516103da9190613fa9565b60405180910390f35b3480156103ef57600080fd5b5061040a6004803603810190610405919061389e565b611473565b005b34801561041857600080fd5b50610433600480360381019061042e919061390a565b6115aa565b6040516104439493929190613f42565b60405180910390f35b34801561045857600080fd5b50610473600480360381019061046e9190613681565b61164d565b005b34801561048157600080fd5b5061049c6004803603810190610497919061390a565b61166d565b6040516104a99190613edb565b60405180910390f35b3480156104be57600080fd5b506104c76116f4565b6040516104d49190614326565b60405180910390f35b3480156104e957600080fd5b5061050460048036038101906104ff919061361c565b6116fc565b6040516105119190614326565b60405180910390f35b34801561052657600080fd5b50610541600480360381019061053c919061395c565b6117b4565b60405161054e9190613fa9565b60405180910390f35b34801561056357600080fd5b5061057e600480360381019061057991906137c3565b6117e3565b005b34801561058c57600080fd5b50610595611c7d565b6040516105a29190613fc4565b60405180910390f35b3480156105b757600080fd5b506105d260048036038101906105cd919061390a565b611d0f565b6040516105e29493929190613f42565b60405180910390f35b3480156105f757600080fd5b50610612600480360381019061060d919061374b565b611d7c565b005b34801561062057600080fd5b5061063b6004803603810190610636919061390a565b611d92565b005b34801561064957600080fd5b50610664600480360381019061065f91906136d0565b611e28565b005b34801561067257600080fd5b5061068d6004803603810190610688919061390a565b611e8a565b005b34801561069b57600080fd5b506106b660048036038101906106b1919061390a565b61216f565b6040516106c39190613fc4565b60405180910390f35b3480156106d857600080fd5b506106e1612282565b6040516106ee9190614326565b60405180910390f35b34801561070357600080fd5b5061071e60048036038101906107199190613645565b612288565b60405161072b9190613fa9565b60405180910390f35b60007f80ac58cd000000000000000000000000000000000000000000000000000000007bffffffffffffffffffffffffffffffffffffffffffffffffffffffff1916827bffffffffffffffffffffffffffffffffffffffffffffffffffffffff191614806107ff57507f5b5e139f000000000000000000000000000000000000000000000000000000007bffffffffffffffffffffffffffffffffffffffffffffffffffffffff1916827bffffffffffffffffffffffffffffffffffffffffffffffffffffffff1916145b8061080f575061080e8261231c565b5b9050919050565b600d818154811061082657600080fd5b906000526020600020016000915054906101000a900473ffffffffffffffffffffffffffffffffffffffff1681565b606060008054610864906145d0565b80601f0160208091040260200160405190810160405280929190818152602001828054610890906145d0565b80156108dd5780601f106108b2576101008083540402835291602001916108dd565b820191906000526020600020905b8154815290600101906020018083116108c057829003601f168201915b5050505050905090565b60006108f282612386565b6004600083815260200190815260200160002060009054906101000a900473ffffffffffffffffffffffffffffffffffffffff169050919050565b60006109388261166d565b90508073ffffffffffffffffffffffffffffffffffffffff168373ffffffffffffffffffffffffffffffffffffffff1614156109a9576040517f08c379a00000000000000000000000000000000000000000000000000000000081526004016109a090614206565b60405180910390fd5b8073ffffffffffffffffffffffffffffffffffffffff166109c86123d1565b73ffffffffffffffffffffffffffffffffffffffff1614806109f757506109f6816109f16123d1565b612288565b5b610a36576040517f08c379a0000000000000000000000000000000000000000000000000000000008152600401610a2d90614246565b60405180910390fd5b610a4083836123d9565b505050565b600e60003373ffffffffffffffffffffffffffffffffffffffff1673ffffffffffffffffffffffffffffffffffffffff16815260200190815260200160002060009054906101000a900460ff16610ad1576040517f08c379a0000000000000000000000000000000000000000000000000000000008152600401610ac8906142e6565b60405180910390fd5b806015805490508110610b19576040517f08c379a0000000000000000000000000000000000000000000000000000000008152600401610b1090614186565b60405180910390fd5b8160158181548110610b54577f4e487b7100000000000000000000000000000000000000000000000000000000600052603260045260246000fd5b906000526020600020906004020160020160009054906101000a900460ff1615610bb3576040517f08c379a0000000000000000000000000000000000000000000000000000000008152600401610baa90614266565b60405180910390fd5b600060158481548110610bef577f4e487b7100000000000000000000000000000000000000000000000000000000600052603260045260246000fd5b906000526020600020906004020190508060000160009054906101000a900473ffffffffffffffffffffffffffffffffffffffff1673ffffffffffffffffffffffffffffffffffffffff166108fc82600101549081150290604051600060405180830381858888f19350505050158015610c6d573d6000803e3d6000fd5b50600f5481600301541015610cb7576040517f08c379a0000000000000000000000000000000000000000000000000000000008152600401610cae906142c6565b60405180910390fd5b60018160020160006101000a81548160ff02191690831515021790555050505050565b600e60003373ffffffffffffffffffffffffffffffffffffffff1673ffffffffffffffffffffffffffffffffffffffff16815260200190815260200160002060009054906101000a900460ff16610d66576040517f08c379a0000000000000000000000000000000000000000000000000000000008152600401610d5d906142e6565b60405180910390fd5b60006015805490509050601560405180608001604052808573ffffffffffffffffffffffffffffffffffffffff1681526020018481526020016000151581526020016000815250908060018154018082558091505060019003906000526020600020906004020160009091909190915060008201518160000160006101000a81548173ffffffffffffffffffffffffffffffffffffffff021916908373ffffffffffffffffffffffffffffffffffffffff1602179055506020820151816001015560408201518160020160006101000a81548160ff0219169083151502179055506060820151816003015550508273ffffffffffffffffffffffffffffffffffffffff16813373ffffffffffffffffffffffffffffffffffffffff167fcd144288a078b7562351164feb1762115faca27f30827b4142f2bbe27166e32085604051610eb19190614326565b60405180910390a4505050565b610ec6612492565b6000600a60009054906101000a900473ffffffffffffffffffffffffffffffffffffffff16905060008173ffffffffffffffffffffffffffffffffffffffff166370a08231336040518263ffffffff1660e01b8152600401610f289190613edb565b60206040518083038186803b158015610f4057600080fd5b505afa158015610f54573d6000803e3d6000fd5b505050506040513d601f19601f82011682018060405250810190610f789190613933565b11610fb8576040517f08c379a0000000000000000000000000000000000000000000000000000000008152600401610faf90614286565b60405180910390fd5b82600954610fc691906144c0565b3414611007576040517f08c379a0000000000000000000000000000000000000000000000000000000008152600401610ffe90614226565b60405180910390fd5b6000831161104a576040517f08c379a000000000000000000000000000000000000000000000000000000000815260040161104190614146565b60405180910390fd5b6000611056600c6124e2565b9050611062600c6124f0565b60008467ffffffffffffffff8111156110a4577f4e487b7100000000000000000000000000000000000000000000000000000000600052604160045260246000fd5b6040519080825280602002602001820160405280156110d25781602001602082028036833780820191505090505b50905060005b858110156112355760006110ec600b6124e2565b90506110f8600b6124f0565b856010600083815260200190815260200160002060006101000a81548160ff02191690831515021790555060006011600083815260200190815260200160002060006101000a81548160ff021916908315150217905550336013600086815260200190815260200160002060006101000a81548173ffffffffffffffffffffffffffffffffffffffff021916908373ffffffffffffffffffffffffffffffffffffffff160217905550808383815181106111db577f4e487b7100000000000000000000000000000000000000000000000000000000600052603260045260246000fd5b6020026020010181815250506012600085815260200190815260200160002081908060018154018082558091505060019003906000526020600020016000909190919091505550808061122d90614633565b9150506110d8565b508481511415611284573373ffffffffffffffffffffffffffffffffffffffff16827f2c1178d73bf65e56427b1e83d139b1372ffb32fa999d5298d4ecac61e947477c60405160405180910390a35b3073ffffffffffffffffffffffffffffffffffffffff166108fc866009546112ac91906144c0565b9081150290604051600060405180830381858888f193505050501580156112d7573d6000803e3d6000fd5b505050506112e3612506565b5050565b60603373ffffffffffffffffffffffffffffffffffffffff166013600084815260200190815260200160002060009054906101000a900473ffffffffffffffffffffffffffffffffffffffff1673ffffffffffffffffffffffffffffffffffffffff161461138a576040517f08c379a000000000000000000000000000000000000000000000000000000000815260040161138190614306565b60405180910390fd5b601260008381526020019081526020016000208054806020026020016040519081016040528092919081815260200182805480156113e757602002820191906000526020600020905b8154815260200190600101908083116113d3575b50505050509050919050565b6114046113fe6123d1565b82612510565b611443576040517f08c379a000000000000000000000000000000000000000000000000000000000815260040161143a90614006565b60405180910390fd5b61144e8383836125a5565b505050565b600e6020528060005260406000206000915054906101000a900460ff1681565b600015156011600084815260200190815260200160002060009054906101000a900460ff161515146114da576040517f08c379a00000000000000000000000000000000000000000000000000000000081526004016114d1906140e6565b60405180910390fd5b6114e4818361289f565b6000848490501161152a576040517f08c379a000000000000000000000000000000000000000000000000000000000815260040161152190614106565b60405180910390fd5b6115788285858080601f016020809104026020016040519081016040528093929190818152602001838380828437600081840152601f19601f82011690508083019250505050505050612abd565b60016011600084815260200190815260200160002060006101000a81548160ff02191690831515021790555050505050565b6000806000806000601586815481106115ec577f4e487b7100000000000000000000000000000000000000000000000000000000600052603260045260246000fd5b906000526020600020906004020190508060000160009054906101000a900473ffffffffffffffffffffffffffffffffffffffff1681600101548260020160009054906101000a900460ff1683600301549450945094509450509193509193565b61166883838360405180602001604052806000815250611e28565b505050565b60008061167983612b31565b9050600073ffffffffffffffffffffffffffffffffffffffff168173ffffffffffffffffffffffffffffffffffffffff1614156116eb576040517f08c379a00000000000000000000000000000000000000000000000000000000081526004016116e2906141e6565b60405180910390fd5b80915050919050565b600047905090565b60008073ffffffffffffffffffffffffffffffffffffffff168273ffffffffffffffffffffffffffffffffffffffff16141561176d576040517f08c379a000000000000000000000000000000000000000000000000000000000815260040161176490614126565b60405180910390fd5b600360008373ffffffffffffffffffffffffffffffffffffffff1673ffffffffffffffffffffffffffffffffffffffff168152602001908152602001600020549050919050565b60146020528160005260406000206020528060005260406000206000915091509054906101000a900460ff1681565b3373ffffffffffffffffffffffffffffffffffffffff166013600085815260200190815260200160002060009054906101000a900473ffffffffffffffffffffffffffffffffffffffff1673ffffffffffffffffffffffffffffffffffffffff1614611884576040517f08c379a000000000000000000000000000000000000000000000000000000000815260040161187b90614306565b60405180910390fd5b601260008481526020019081526020016000208054905085859050146118df576040517f08c379a00000000000000000000000000000000000000000000000000000000081526004016118d690614046565b60405180910390fd5b60006012600085815260200190815260200160002080548060200260200160405190810160405280929190818152602001828054801561193e57602002820191906000526020600020905b81548152602001906001019080831161192a575b5050505050905060005b8151811015611c74576000151560116000848481518110611992577f4e487b7100000000000000000000000000000000000000000000000000000000600052603260045260246000fd5b6020026020010151815260200190815260200160002060009054906101000a900460ff161515146119f8576040517f08c379a00000000000000000000000000000000000000000000000000000000081526004016119ef906140e6565b60405180910390fd5b611a8f878783818110611a34577f4e487b7100000000000000000000000000000000000000000000000000000000600052603260045260246000fd5b9050602002016020810190611a49919061361c565b838381518110611a82577f4e487b7100000000000000000000000000000000000000000000000000000000600052603260045260246000fd5b602002602001015161289f565b6000848483818110611aca577f4e487b7100000000000000000000000000000000000000000000000000000000600052603260045260246000fd5b9050602002810190611adc9190614341565b905011611b1e576040517f08c379a0000000000000000000000000000000000000000000000000000000008152600401611b1590614106565b60405180910390fd5b611bf5828281518110611b5a577f4e487b7100000000000000000000000000000000000000000000000000000000600052603260045260246000fd5b6020026020010151858584818110611b9b577f4e487b7100000000000000000000000000000000000000000000000000000000600052603260045260246000fd5b9050602002810190611bad9190614341565b8080601f016020809104026020016040519081016040528093929190818152602001838380828437600081840152601f19601f82011690508083019250505050505050612abd565b600160116000848481518110611c34577f4e487b7100000000000000000000000000000000000000000000000000000000600052603260045260246000fd5b6020026020010151815260200190815260200160002060006101000a81548160ff0219169083151502179055508080611c6c90614633565b915050611948565b50505050505050565b606060018054611c8c906145d0565b80601f0160208091040260200160405190810160405280929190818152602001828054611cb8906145d0565b8015611d055780601f10611cda57610100808354040283529160200191611d05565b820191906000526020600020905b815481529060010190602001808311611ce857829003601f168201915b5050505050905090565b60158181548110611d1f57600080fd5b90600052602060002090600402016000915090508060000160009054906101000a900473ffffffffffffffffffffffffffffffffffffffff16908060010154908060020160009054906101000a900460ff16908060030154905084565b611d8e611d876123d1565b8383612b6e565b5050565b600e60003373ffffffffffffffffffffffffffffffffffffffff1673ffffffffffffffffffffffffffffffffffffffff16815260200190815260200160002060009054906101000a900460ff16611e1e576040517f08c379a0000000000000000000000000000000000000000000000000000000008152600401611e15906142e6565b60405180910390fd5b8060098190555050565b611e39611e336123d1565b83612510565b611e78576040517f08c379a0000000000000000000000000000000000000000000000000000000008152600401611e6f90614006565b60405180910390fd5b611e8484848484612cdb565b50505050565b600e60003373ffffffffffffffffffffffffffffffffffffffff1673ffffffffffffffffffffffffffffffffffffffff16815260200190815260200160002060009054906101000a900460ff16611f16576040517f08c379a0000000000000000000000000000000000000000000000000000000008152600401611f0d906142e6565b60405180910390fd5b806015805490508110611f5e576040517f08c379a0000000000000000000000000000000000000000000000000000000008152600401611f5590614186565b60405180910390fd5b8160158181548110611f99577f4e487b7100000000000000000000000000000000000000000000000000000000600052603260045260246000fd5b906000526020600020906004020160020160009054906101000a900460ff1615611ff8576040517f08c379a0000000000000000000000000000000000000000000000000000000008152600401611fef90614266565b60405180910390fd5b826014600082815260200190815260200160002060003373ffffffffffffffffffffffffffffffffffffffff1673ffffffffffffffffffffffffffffffffffffffff16815260200190815260200160002060009054906101000a900460ff1615612097576040517f08c379a000000000000000000000000000000000000000000000000000000000815260040161208e906141c6565b60405180910390fd5b6000601585815481106120d3577f4e487b7100000000000000000000000000000000000000000000000000000000600052603260045260246000fd5b9060005260206000209060040201905060018160030160008282546120f8919061446a565b9250508190555060016014600087815260200190815260200160002060003373ffffffffffffffffffffffffffffffffffffffff1673ffffffffffffffffffffffffffffffffffffffff16815260200190815260200160002060006101000a81548160ff0219169083151502179055505050505050565b606061217a82612386565b600060066000848152602001908152602001600020805461219a906145d0565b80601f01602080910402602001604051908101604052809291908181526020018280546121c6906145d0565b80156122135780601f106121e857610100808354040283529160200191612213565b820191906000526020600020905b8154815290600101906020018083116121f657829003601f168201915b505050505090506000612224612d37565b905060008151141561223a57819250505061227d565b60008251111561226f578082604051602001612257929190613eb7565b6040516020818303038152906040529250505061227d565b61227884612d4e565b925050505b919050565b600f5481565b6000600560008473ffffffffffffffffffffffffffffffffffffffff1673ffffffffffffffffffffffffffffffffffffffff16815260200190815260200160002060008373ffffffffffffffffffffffffffffffffffffffff1673ffffffffffffffffffffffffffffffffffffffff16815260200190815260200160002060009054906101000a900460ff16905092915050565b60007f01ffc9a7000000000000000000000000000000000000000000000000000000007bffffffffffffffffffffffffffffffffffffffffffffffffffffffff1916827bffffffffffffffffffffffffffffffffffffffffffffffffffffffff1916149050919050565b61238f81612db6565b6123ce576040517f08c379a00000000000000000000000000000000000000000000000000000000081526004016123c5906141e6565b60405180910390fd5b50565b600033905090565b816004600083815260200190815260200160002060006101000a81548173ffffffffffffffffffffffffffffffffffffffff021916908373ffffffffffffffffffffffffffffffffffffffff160217905550808273ffffffffffffffffffffffffffffffffffffffff1661244c8361166d565b73ffffffffffffffffffffffffffffffffffffffff167f8c5be1e5ebec7d5bd14f71427d1e84f3dd0314c0f7b2291e5b200ac8c7c3b92560405160405180910390a45050565b600260085414156124d8576040517f08c379a00000000000000000000000000000000000000000000000000000000081526004016124cf906142a6565b60405180910390fd5b6002600881905550565b600081600001549050919050565b6001816000016000828254019250508190555050565b6001600881905550565b60008061251c8361166d565b90508073ffffffffffffffffffffffffffffffffffffffff168473ffffffffffffffffffffffffffffffffffffffff16148061255e575061255d8185612288565b5b8061259c57508373ffffffffffffffffffffffffffffffffffffffff16612584846108e7565b73ffffffffffffffffffffffffffffffffffffffff16145b91505092915050565b8273ffffffffffffffffffffffffffffffffffffffff166125c58261166d565b73ffffffffffffffffffffffffffffffffffffffff161461261b576040517f08c379a000000000000000000000000000000000000000000000000000000000815260040161261290614066565b60405180910390fd5b600073ffffffffffffffffffffffffffffffffffffffff168273ffffffffffffffffffffffffffffffffffffffff16141561268b576040517f08c379a0000000000000000000000000000000000000000000000000000000008152600401612682906140a6565b60405180910390fd5b6126988383836001612df7565b8273ffffffffffffffffffffffffffffffffffffffff166126b88261166d565b73ffffffffffffffffffffffffffffffffffffffff161461270e576040517f08c379a000000000000000000000000000000000000000000000000000000000815260040161270590614066565b60405180910390fd5b6004600082815260200190815260200160002060006101000a81549073ffffffffffffffffffffffffffffffffffffffff02191690556001600360008573ffffffffffffffffffffffffffffffffffffffff1673ffffffffffffffffffffffffffffffffffffffff168152602001908152602001600020600082825403925050819055506001600360008473ffffffffffffffffffffffffffffffffffffffff1673ffffffffffffffffffffffffffffffffffffffff16815260200190815260200160002060008282540192505081905550816002600083815260200190815260200160002060006101000a81548173ffffffffffffffffffffffffffffffffffffffff021916908373ffffffffffffffffffffffffffffffffffffffff160217905550808273ffffffffffffffffffffffffffffffffffffffff168473ffffffffffffffffffffffffffffffffffffffff167fddf252ad1be2c89b69c2b068fc378daa952ba7f163c4a11628f55a4df523b3ef60405160405180910390a461289a8383836001612e9a565b505050565b600073ffffffffffffffffffffffffffffffffffffffff168273ffffffffffffffffffffffffffffffffffffffff16141561290f576040517f08c379a0000000000000000000000000000000000000000000000000000000008152600401612906906141a6565b60405180910390fd5b61291881612db6565b15612958576040517f08c379a000000000000000000000000000000000000000000000000000000000815260040161294f90614086565b60405180910390fd5b612966600083836001612df7565b61296f81612db6565b156129af576040517f08c379a00000000000000000000000000000000000000000000000000000000081526004016129a690614086565b60405180910390fd5b6001600360008473ffffffffffffffffffffffffffffffffffffffff1673ffffffffffffffffffffffffffffffffffffffff16815260200190815260200160002060008282540192505081905550816002600083815260200190815260200160002060006101000a81548173ffffffffffffffffffffffffffffffffffffffff021916908373ffffffffffffffffffffffffffffffffffffffff160217905550808273ffffffffffffffffffffffffffffffffffffffff16600073ffffffffffffffffffffffffffffffffffffffff167fddf252ad1be2c89b69c2b068fc378daa952ba7f163c4a11628f55a4df523b3ef60405160405180910390a4612ab9600083836001612e9a565b5050565b612ac682612db6565b612b05576040517f08c379a0000000000000000000000000000000000000000000000000000000008152600401612afc90614166565b60405180910390fd5b80600660008481526020019081526020016000209080519060200190612b2c9291906133b5565b505050565b60006002600083815260200190815260200160002060009054906101000a900473ffffffffffffffffffffffffffffffffffffffff169050919050565b8173ffffffffffffffffffffffffffffffffffffffff168373ffffffffffffffffffffffffffffffffffffffff161415612bdd576040517f08c379a0000000000000000000000000000000000000000000000000000000008152600401612bd4906140c6565b60405180910390fd5b80600560008573ffffffffffffffffffffffffffffffffffffffff1673ffffffffffffffffffffffffffffffffffffffff16815260200190815260200160002060008473ffffffffffffffffffffffffffffffffffffffff1673ffffffffffffffffffffffffffffffffffffffff16815260200190815260200160002060006101000a81548160ff0219169083151502179055508173ffffffffffffffffffffffffffffffffffffffff168373ffffffffffffffffffffffffffffffffffffffff167f17307eab39ab6107e8899845ad3d59bd9653f200f220920489ca2b5937696c3183604051612cce9190613fa9565b60405180910390a3505050565b612ce68484846125a5565b612cf284848484612ea0565b612d31576040517f08c379a0000000000000000000000000000000000000000000000000000000008152600401612d2890614026565b60405180910390fd5b50505050565b606060405180602001604052806000815250905090565b6060612d5982612386565b6000612d63612d37565b90506000815111612d835760405180602001604052806000815250612dae565b80612d8d84613037565b604051602001612d9e929190613eb7565b6040516020818303038152906040525b915050919050565b60008073ffffffffffffffffffffffffffffffffffffffff16612dd883612b31565b73ffffffffffffffffffffffffffffffffffffffff1614159050919050565b600073ffffffffffffffffffffffffffffffffffffffff168473ffffffffffffffffffffffffffffffffffffffff1614612e9457600115156010600084815260200190815260200160002060009054906101000a900460ff1615151415612e93576040517f08c379a0000000000000000000000000000000000000000000000000000000008152600401612e8a90613fe6565b60405180910390fd5b5b50505050565b50505050565b6000612ec18473ffffffffffffffffffffffffffffffffffffffff1661315b565b1561302a578373ffffffffffffffffffffffffffffffffffffffff1663150b7a02612eea6123d1565b8786866040518563ffffffff1660e01b8152600401612f0c9493929190613ef6565b602060405180830381600087803b158015612f2657600080fd5b505af1925050508015612f5757506040513d601f19601f82011682018060405250810190612f549190613875565b60015b612fda573d8060008114612f87576040519150601f19603f3d011682016040523d82523d6000602084013e612f8c565b606091505b50600081511415612fd2576040517f08c379a0000000000000000000000000000000000000000000000000000000008152600401612fc990614026565b60405180910390fd5b805181602001fd5b63150b7a0260e01b7bffffffffffffffffffffffffffffffffffffffffffffffffffffffff1916817bffffffffffffffffffffffffffffffffffffffffffffffffffffffff19161491505061302f565b600190505b949350505050565b6060600060016130468461317e565b01905060008167ffffffffffffffff81111561308b577f4e487b7100000000000000000000000000000000000000000000000000000000600052604160045260246000fd5b6040519080825280601f01601f1916602001820160405280156130bd5781602001600182028036833780820191505090505b509050600082602001820190505b600115613150578080600190039150507f3031323334353637383961626364656600000000000000000000000000000000600a86061a8153600a858161313a577f4e487b7100000000000000000000000000000000000000000000000000000000600052601260045260246000fd5b049450600085141561314b57613150565b6130cb565b819350505050919050565b6000808273ffffffffffffffffffffffffffffffffffffffff163b119050919050565b600080600090507a184f03e93ff9f4daa797ed6e38ed64bf6a1f0100000000000000008310613202577a184f03e93ff9f4daa797ed6e38ed64bf6a1f01000000000000000083816131f8577f4e487b7100000000000000000000000000000000000000000000000000000000600052601260045260246000fd5b0492506040810190505b6d04ee2d6d415b85acef81000000008310613265576d04ee2d6d415b85acef8100000000838161325b577f4e487b7100000000000000000000000000000000000000000000000000000000600052601260045260246000fd5b0492506020810190505b662386f26fc1000083106132ba57662386f26fc1000083816132b0577f4e487b7100000000000000000000000000000000000000000000000000000000600052601260045260246000fd5b0492506010810190505b6305f5e1008310613309576305f5e10083816132ff577f4e487b7100000000000000000000000000000000000000000000000000000000600052601260045260246000fd5b0492506008810190505b612710831061335457612710838161334a577f4e487b7100000000000000000000000000000000000000000000000000000000600052601260045260246000fd5b0492506004810190505b6064831061339d5760648381613393577f4e487b7100000000000000000000000000000000000000000000000000000000600052601260045260246000fd5b0492506002810190505b600a83106133ac576001810190505b80915050919050565b8280546133c1906145d0565b90600052602060002090601f0160209004810192826133e3576000855561342a565b82601f106133fc57805160ff191683800117855561342a565b8280016001018555821561342a579182015b8281111561342957825182559160200191906001019061340e565b5b509050613437919061343b565b5090565b5b8082111561345457600081600090555060010161343c565b5090565b600061346b613466846143bd565b614398565b90508281526020810184848401111561348357600080fd5b61348e84828561458e565b509392505050565b6000813590506134a581614cc0565b92915050565b60008083601f8401126134bd57600080fd5b8235905067ffffffffffffffff8111156134d657600080fd5b6020830191508360208202830111156134ee57600080fd5b9250929050565b60008083601f84011261350757600080fd5b8235905067ffffffffffffffff81111561352057600080fd5b60208301915083602082028301111561353857600080fd5b9250929050565b60008135905061354e81614cd7565b92915050565b60008135905061356381614cee565b92915050565b60008151905061357881614cee565b92915050565b600082601f83011261358f57600080fd5b813561359f848260208601613458565b91505092915050565b60008083601f8401126135ba57600080fd5b8235905067ffffffffffffffff8111156135d357600080fd5b6020830191508360018202830111156135eb57600080fd5b9250929050565b60008135905061360181614d05565b92915050565b60008151905061361681614d05565b92915050565b60006020828403121561362e57600080fd5b600061363c84828501613496565b91505092915050565b6000806040838503121561365857600080fd5b600061366685828601613496565b925050602061367785828601613496565b9150509250929050565b60008060006060848603121561369657600080fd5b60006136a486828701613496565b93505060206136b586828701613496565b92505060406136c6868287016135f2565b9150509250925092565b600080600080608085870312156136e657600080fd5b60006136f487828801613496565b945050602061370587828801613496565b9350506040613716878288016135f2565b925050606085013567ffffffffffffffff81111561373357600080fd5b61373f8782880161357e565b91505092959194509250565b6000806040838503121561375e57600080fd5b600061376c85828601613496565b925050602061377d8582860161353f565b9150509250929050565b6000806040838503121561379a57600080fd5b60006137a885828601613496565b92505060206137b9858286016135f2565b9150509250929050565b6000806000806000606086880312156137db57600080fd5b600086013567ffffffffffffffff8111156137f557600080fd5b613801888289016134ab565b95509550506020613814888289016135f2565b935050604086013567ffffffffffffffff81111561383157600080fd5b61383d888289016134f5565b92509250509295509295909350565b60006020828403121561385e57600080fd5b600061386c84828501613554565b91505092915050565b60006020828403121561388757600080fd5b600061389584828501613569565b91505092915050565b600080600080606085870312156138b457600080fd5b600085013567ffffffffffffffff8111156138ce57600080fd5b6138da878288016135a8565b945094505060206138ed878288016135f2565b92505060406138fe87828801613496565b91505092959194509250565b60006020828403121561391c57600080fd5b600061392a848285016135f2565b91505092915050565b60006020828403121561394557600080fd5b600061395384828501613607565b91505092915050565b6000806040838503121561396f57600080fd5b600061397d858286016135f2565b925050602061398e85828601613496565b9150509250929050565b600080604083850312156139ab57600080fd5b60006139b9858286016135f2565b92505060206139ca8582860161353f565b9150509250929050565b60006139e08383613e99565b60208301905092915050565b6139f58161451a565b82525050565b6000613a06826143fe565b613a10818561442c565b9350613a1b836143ee565b8060005b83811015613a4c578151613a3388826139d4565b9750613a3e8361441f565b925050600181019050613a1f565b5085935050505092915050565b613a628161452c565b82525050565b6000613a7382614409565b613a7d818561443d565b9350613a8d81856020860161459d565b613a9681614709565b840191505092915050565b6000613aac82614414565b613ab6818561444e565b9350613ac681856020860161459d565b613acf81614709565b840191505092915050565b6000613ae582614414565b613aef818561445f565b9350613aff81856020860161459d565b80840191505092915050565b6000613b18601d8361444e565b9150613b238261471a565b602082019050919050565b6000613b3b602d8361444e565b9150613b4682614743565b604082019050919050565b6000613b5e60328361444e565b9150613b6982614792565b604082019050919050565b6000613b81603f8361444e565b9150613b8c826147e1565b604082019050919050565b6000613ba460258361444e565b9150613baf82614830565b604082019050919050565b6000613bc7601c8361444e565b9150613bd28261487f565b602082019050919050565b6000613bea60248361444e565b9150613bf5826148a8565b604082019050919050565b6000613c0d60198361444e565b9150613c18826148f7565b602082019050919050565b6000613c30601d8361444e565b9150613c3b82614920565b602082019050919050565b6000613c53601b8361444e565b9150613c5e82614949565b602082019050919050565b6000613c7660298361444e565b9150613c8182614972565b604082019050919050565b6000613c9960108361444e565b9150613ca4826149c1565b602082019050919050565b6000613cbc602e8361444e565b9150613cc7826149ea565b604082019050919050565b6000613cdf60118361444e565b9150613cea82614a39565b602082019050919050565b6000613d0260208361444e565b9150613d0d82614a62565b602082019050919050565b6000613d2560148361444e565b9150613d3082614a8b565b602082019050919050565b6000613d4860188361444e565b9150613d5382614ab4565b602082019050919050565b6000613d6b60218361444e565b9150613d7682614add565b604082019050919050565b6000613d8e60248361444e565b9150613d9982614b2c565b604082019050919050565b6000613db1603d8361444e565b9150613dbc82614b7b565b604082019050919050565b6000613dd460138361444e565b9150613ddf82614bca565b602082019050919050565b6000613df7601a8361444e565b9150613e0282614bf3565b602082019050919050565b6000613e1a601f8361444e565b9150613e2582614c1c565b602082019050919050565b6000613e3d60118361444e565b9150613e4882614c45565b602082019050919050565b6000613e6060098361444e565b9150613e6b82614c6e565b602082019050919050565b6000613e8360138361444e565b9150613e8e82614c97565b602082019050919050565b613ea281614584565b82525050565b613eb181614584565b82525050565b6000613ec38285613ada565b9150613ecf8284613ada565b91508190509392505050565b6000602082019050613ef060008301846139ec565b92915050565b6000608082019050613f0b60008301876139ec565b613f1860208301866139ec565b613f256040830185613ea8565b8181036060830152613f378184613a68565b905095945050505050565b6000608082019050613f5760008301876139ec565b613f646020830186613ea8565b613f716040830185613a59565b613f7e6060830184613ea8565b95945050505050565b60006020820190508181036000830152613fa181846139fb565b905092915050565b6000602082019050613fbe6000830184613a59565b92915050565b60006020820190508181036000830152613fde8184613aa1565b905092915050565b60006020820190508181036000830152613fff81613b0b565b9050919050565b6000602082019050818103600083015261401f81613b2e565b9050919050565b6000602082019050818103600083015261403f81613b51565b9050919050565b6000602082019050818103600083015261405f81613b74565b9050919050565b6000602082019050818103600083015261407f81613b97565b9050919050565b6000602082019050818103600083015261409f81613bba565b9050919050565b600060208201905081810360008301526140bf81613bdd565b9050919050565b600060208201905081810360008301526140df81613c00565b9050919050565b600060208201905081810360008301526140ff81613c23565b9050919050565b6000602082019050818103600083015261411f81613c46565b9050919050565b6000602082019050818103600083015261413f81613c69565b9050919050565b6000602082019050818103600083015261415f81613c8c565b9050919050565b6000602082019050818103600083015261417f81613caf565b9050919050565b6000602082019050818103600083015261419f81613cd2565b9050919050565b600060208201905081810360008301526141bf81613cf5565b9050919050565b600060208201905081810360008301526141df81613d18565b9050919050565b600060208201905081810360008301526141ff81613d3b565b9050919050565b6000602082019050818103600083015261421f81613d5e565b9050919050565b6000602082019050818103600083015261423f81613d81565b9050919050565b6000602082019050818103600083015261425f81613da4565b9050919050565b6000602082019050818103600083015261427f81613dc7565b9050919050565b6000602082019050818103600083015261429f81613dea565b9050919050565b600060208201905081810360008301526142bf81613e0d565b9050919050565b600060208201905081810360008301526142df81613e30565b9050919050565b600060208201905081810360008301526142ff81613e53565b9050919050565b6000602082019050818103600083015261431f81613e76565b9050919050565b600060208201905061433b6000830184613ea8565b92915050565b6000808335600160200384360303811261435a57600080fd5b80840192508235915067ffffffffffffffff82111561437857600080fd5b60208301925060018202360383131561439057600080fd5b509250929050565b60006143a26143b3565b90506143ae8282614602565b919050565b6000604051905090565b600067ffffffffffffffff8211156143d8576143d76146da565b5b6143e182614709565b9050602081019050919050565b6000819050602082019050919050565b600081519050919050565b600081519050919050565b600081519050919050565b6000602082019050919050565b600082825260208201905092915050565b600082825260208201905092915050565b600082825260208201905092915050565b600081905092915050565b600061447582614584565b915061448083614584565b9250827fffffffffffffffffffffffffffffffffffffffffffffffffffffffffffffffff038211156144b5576144b461467c565b5b828201905092915050565b60006144cb82614584565b91506144d683614584565b9250817fffffffffffffffffffffffffffffffffffffffffffffffffffffffffffffffff048311821515161561450f5761450e61467c565b5b828202905092915050565b600061452582614564565b9050919050565b60008115159050919050565b60007fffffffff0000000000000000000000000000000000000000000000000000000082169050919050565b600073ffffffffffffffffffffffffffffffffffffffff82169050919050565b6000819050919050565b82818337600083830152505050565b60005b838110156145bb5780820151818401526020810190506145a0565b838111156145ca576000848401525b50505050565b600060028204905060018216806145e857607f821691505b602082108114156145fc576145fb6146ab565b5b50919050565b61460b82614709565b810181811067ffffffffffffffff8211171561462a576146296146da565b5b80604052505050565b600061463e82614584565b91507fffffffffffffffffffffffffffffffffffffffffffffffffffffffffffffffff8214156146715761467061467c565b5b600182019050919050565b7f4e487b7100000000000000000000000000000000000000000000000000000000600052601160045260246000fd5b7f4e487b7100000000000000000000000000000000000000000000000000000000600052602260045260246000fd5b7f4e487b7100000000000000000000000000000000000000000000000000000000600052604160045260246000fd5b6000601f19601f8301169050919050565b7f4e6f7420616c6c6f77656420746f207472616e7366657220746f6b656e000000600082015250565b7f4552433732313a2063616c6c6572206973206e6f7420746f6b656e206f776e6560008201527f72206f7220617070726f76656400000000000000000000000000000000000000602082015250565b7f4552433732313a207472616e7366657220746f206e6f6e20455243373231526560008201527f63656976657220696d706c656d656e7465720000000000000000000000000000602082015250565b7f4e756d626572206f6620746f6b656e49647320616e6420636f6c6c6563746f7260008201527f73206f662074686973206576656e742073686f756c642062652073616d652100602082015250565b7f4552433732313a207472616e736665722066726f6d20696e636f72726563742060008201527f6f776e6572000000000000000000000000000000000000000000000000000000602082015250565b7f4552433732313a20746f6b656e20616c7265616479206d696e74656400000000600082015250565b7f4552433732313a207472616e7366657220746f20746865207a65726f2061646460008201527f7265737300000000000000000000000000000000000000000000000000000000602082015250565b7f4552433732313a20617070726f766520746f2063616c6c657200000000000000600082015250565b7f5468697320746f6b656e20697320616c7265616479206d696e74656421000000600082015250565b7f546f6b656e20555249206d757374206e6f7420626520656d7074790000000000600082015250565b7f4552433732313a2061646472657373207a65726f206973206e6f74206120766160008201527f6c6964206f776e65720000000000000000000000000000000000000000000000602082015250565b7f496e76616c6964207175616e7469747900000000000000000000000000000000600082015250565b7f45524337323155524953746f726167653a2055524920736574206f66206e6f6e60008201527f6578697374656e7420746f6b656e000000000000000000000000000000000000602082015250565b7f747820646f6573206e6f74206578697374000000000000000000000000000000600082015250565b7f4552433732313a206d696e7420746f20746865207a65726f2061646472657373600082015250565b7f747820616c726561647920636f6e6669726d6564000000000000000000000000600082015250565b7f4552433732313a20696e76616c696420746f6b656e2049440000000000000000600082015250565b7f4552433732313a20617070726f76616c20746f2063757272656e74206f776e6560008201527f7200000000000000000000000000000000000000000000000000000000000000602082015250565b7f5072696365206d75737420626520657175616c20746f206c697374696e67207060008201527f7269636500000000000000000000000000000000000000000000000000000000602082015250565b7f4552433732313a20617070726f76652063616c6c6572206973206e6f7420746f60008201527f6b656e206f776e6572206f7220617070726f76656420666f7220616c6c000000602082015250565b7f747820616c726561647920657865637574656400000000000000000000000000600082015250565b7f596f7520646f6e2774206861766520497373756572206e667421000000000000600082015250565b7f5265656e7472616e637947756172643a207265656e7472616e742063616c6c00600082015250565b7f63616e6e6f742065786563757465207478000000000000000000000000000000600082015250565b7f6e6f74206f776e65720000000000000000000000000000000000000000000000600082015250565b7f596f7520617265206e6f74206973737565722100000000000000000000000000600082015250565b614cc98161451a565b8114614cd457600080fd5b50565b614ce08161452c565b8114614ceb57600080fd5b50565b614cf781614538565b8114614d0257600080fd5b50565b614d0e81614584565b8114614d1957600080fd5b5056fea26469706673582212201d458bfc89c2ba83c7037caaa3fbe83ec517de48fd7191982405928bb1f6a16264736f6c63430008040033",
  "linkReferences": {},
  "deployedLinkReferences": {}
}