{
  "_format": "hh-sol-artifact-1",
  "contractName": "Trustified",
  "sourceName": "contracts/Trustified.sol",
  "abi": [
    {
      "inputs": [],
      "stateMutability": "nonpayable",
      "type": "constructor"
    },
    {
      "anonymous": false,
      "inputs": [
        {
          "indexed": true,
          "internalType": "address",
          "name": "owner",
          "type": "address"
        },
        {
          "indexed": true,
          "internalType": "address",
          "name": "approved",
          "type": "address"
        },
        {
          "indexed": true,
          "internalType": "uint256",
          "name": "tokenId",
          "type": "uint256"
        }
      ],
      "name": "Approval",
      "type": "event"
    },
    {
      "anonymous": false,
      "inputs": [
        {
          "indexed": true,
          "internalType": "address",
          "name": "owner",
          "type": "address"
        },
        {
          "indexed": true,
          "internalType": "address",
          "name": "operator",
          "type": "address"
        },
        {
          "indexed": false,
          "internalType": "bool",
          "name": "approved",
          "type": "bool"
        }
      ],
      "name": "ApprovalForAll",
      "type": "event"
    },
    {
      "anonymous": false,
      "inputs": [
        {
          "indexed": true,
          "internalType": "uint256",
          "name": "eventId",
          "type": "uint256"
        },
        {
          "indexed": false,
          "internalType": "uint256[]",
          "name": "tokenIds",
          "type": "uint256[]"
        },
        {
          "indexed": true,
          "internalType": "address",
          "name": "issuer",
          "type": "address"
        }
      ],
      "name": "TokensMinted",
      "type": "event"
    },
    {
      "anonymous": false,
      "inputs": [
        {
          "indexed": true,
          "internalType": "address",
          "name": "from",
          "type": "address"
        },
        {
          "indexed": true,
          "internalType": "address",
          "name": "to",
          "type": "address"
        },
        {
          "indexed": true,
          "internalType": "uint256",
          "name": "tokenId",
          "type": "uint256"
        }
      ],
      "name": "Transfer",
      "type": "event"
    },
    {
      "inputs": [
        {
          "internalType": "address",
          "name": "to",
          "type": "address"
        },
        {
          "internalType": "uint256",
          "name": "tokenId",
          "type": "uint256"
        }
      ],
      "name": "approve",
      "outputs": [],
      "stateMutability": "nonpayable",
      "type": "function"
    },
    {
      "inputs": [
        {
          "internalType": "address",
          "name": "owner",
          "type": "address"
        }
      ],
      "name": "balanceOf",
      "outputs": [
        {
          "internalType": "uint256",
          "name": "",
          "type": "uint256"
        }
      ],
      "stateMutability": "view",
      "type": "function"
    },
    {
      "inputs": [
        {
          "internalType": "string",
          "name": "tokenUri",
          "type": "string"
        },
        {
          "internalType": "uint256",
          "name": "quantity",
          "type": "uint256"
        },
        {
          "internalType": "uint256",
          "name": "value",
          "type": "uint256"
        },
        {
          "internalType": "bool",
          "name": "nonTransferable",
          "type": "bool"
        }
      ],
      "name": "bulkMintERC721",
      "outputs": [],
      "stateMutability": "nonpayable",
      "type": "function"
    },
    {
      "inputs": [
        {
          "internalType": "uint256",
          "name": "tokenId",
          "type": "uint256"
        }
      ],
      "name": "getApproved",
      "outputs": [
        {
          "internalType": "address",
          "name": "",
          "type": "address"
        }
      ],
      "stateMutability": "view",
      "type": "function"
    },
    {
      "inputs": [
        {
          "internalType": "address",
          "name": "owner",
          "type": "address"
        },
        {
          "internalType": "address",
          "name": "operator",
          "type": "address"
        }
      ],
      "name": "isApprovedForAll",
      "outputs": [
        {
          "internalType": "bool",
          "name": "",
          "type": "bool"
        }
      ],
      "stateMutability": "view",
      "type": "function"
    },
    {
      "inputs": [],
      "name": "name",
      "outputs": [
        {
          "internalType": "string",
          "name": "",
          "type": "string"
        }
      ],
      "stateMutability": "view",
      "type": "function"
    },
    {
      "inputs": [],
      "name": "owner",
      "outputs": [
        {
          "internalType": "address payable",
          "name": "",
          "type": "address"
        }
      ],
      "stateMutability": "view",
      "type": "function"
    },
    {
      "inputs": [
        {
          "internalType": "uint256",
          "name": "tokenId",
          "type": "uint256"
        }
      ],
      "name": "ownerOf",
      "outputs": [
        {
          "internalType": "address",
          "name": "",
          "type": "address"
        }
      ],
      "stateMutability": "view",
      "type": "function"
    },
    {
      "inputs": [
        {
          "internalType": "address",
          "name": "from",
          "type": "address"
        },
        {
          "internalType": "address",
          "name": "to",
          "type": "address"
        },
        {
          "internalType": "uint256",
          "name": "tokenId",
          "type": "uint256"
        }
      ],
      "name": "safeTransferFrom",
      "outputs": [],
      "stateMutability": "nonpayable",
      "type": "function"
    },
    {
      "inputs": [
        {
          "internalType": "address",
          "name": "from",
          "type": "address"
        },
        {
          "internalType": "address",
          "name": "to",
          "type": "address"
        },
        {
          "internalType": "uint256",
          "name": "tokenId",
          "type": "uint256"
        },
        {
          "internalType": "bytes",
          "name": "data",
          "type": "bytes"
        }
      ],
      "name": "safeTransferFrom",
      "outputs": [],
      "stateMutability": "nonpayable",
      "type": "function"
    },
    {
      "inputs": [
        {
          "internalType": "address",
          "name": "operator",
          "type": "address"
        },
        {
          "internalType": "bool",
          "name": "approved",
          "type": "bool"
        }
      ],
      "name": "setApprovalForAll",
      "outputs": [],
      "stateMutability": "nonpayable",
      "type": "function"
    },
    {
      "inputs": [
        {
          "internalType": "bytes4",
          "name": "interfaceId",
          "type": "bytes4"
        }
      ],
      "name": "supportsInterface",
      "outputs": [
        {
          "internalType": "bool",
          "name": "",
          "type": "bool"
        }
      ],
      "stateMutability": "view",
      "type": "function"
    },
    {
      "inputs": [],
      "name": "symbol",
      "outputs": [
        {
          "internalType": "string",
          "name": "",
          "type": "string"
        }
      ],
      "stateMutability": "view",
      "type": "function"
    },
    {
      "inputs": [
        {
          "internalType": "uint256",
          "name": "tokenId",
          "type": "uint256"
        }
      ],
      "name": "tokenURI",
      "outputs": [
        {
          "internalType": "string",
          "name": "",
          "type": "string"
        }
      ],
      "stateMutability": "view",
      "type": "function"
    },
    {
      "inputs": [
        {
          "internalType": "address",
          "name": "from",
          "type": "address"
        },
        {
          "internalType": "address",
          "name": "to",
          "type": "address"
        },
        {
          "internalType": "uint256",
          "name": "tokenId",
          "type": "uint256"
        }
      ],
      "name": "transferFrom",
      "outputs": [],
      "stateMutability": "nonpayable",
      "type": "function"
    },
    {
      "inputs": [
        {
          "internalType": "address",
          "name": "from",
          "type": "address"
        },
        {
          "internalType": "address",
          "name": "to",
          "type": "address"
        },
        {
          "internalType": "uint256",
          "name": "tokenId",
          "type": "uint256"
        },
        {
          "internalType": "string",
          "name": "tokenURI",
          "type": "string"
        },
        {
          "internalType": "uint256",
          "name": "value",
          "type": "uint256"
        }
      ],
      "name": "transferToken",
      "outputs": [],
      "stateMutability": "nonpayable",
      "type": "function"
    }
  ],
  "bytecode": "0x60806040523480156200001157600080fd5b506040518060400160405280600a81526020017f54727573746966696564000000000000000000000000000000000000000000008152506040518060400160405280600381526020017f544644000000000000000000000000000000000000000000000000000000000081525081600090805190602001906200009692919062000101565b508060019080519060200190620000af92919062000101565b505050600160088190555033600960006101000a81548173ffffffffffffffffffffffffffffffffffffffff021916908373ffffffffffffffffffffffffffffffffffffffff16021790555062000216565b8280546200010f90620001b1565b90600052602060002090601f0160209004810192826200013357600085556200017f565b82601f106200014e57805160ff19168380011785556200017f565b828001600101855582156200017f579182015b828111156200017e57825182559160200191906001019062000161565b5b5090506200018e919062000192565b5090565b5b80821115620001ad57600081600090555060010162000193565b5090565b60006002820490506001821680620001ca57607f821691505b60208210811415620001e157620001e0620001e7565b5b50919050565b7f4e487b7100000000000000000000000000000000000000000000000000000000600052602260045260246000fd5b61340c80620002266000396000f3fe608060405234801561001057600080fd5b50600436106101005760003560e01c806370a0823111610097578063a22cb46511610066578063a22cb465146102ab578063b88d4fde146102c7578063c87b56dd146102e3578063e985e9c51461031357610100565b806370a082311461022357806380574834146102535780638da5cb5b1461026f57806395d89b411461028d57610100565b80631ba7ddd2116100d35780631ba7ddd21461019f57806323b872dd146101bb57806342842e0e146101d75780636352211e146101f357610100565b806301ffc9a71461010557806306fdde0314610135578063081812fc14610153578063095ea7b314610183575b600080fd5b61011f600480360381019061011a9190612429565b610343565b60405161012c91906129c6565b60405180910390f35b61013d610425565b60405161014a91906129e1565b60405180910390f35b61016d600480360381019061016891906124fb565b6104b7565b60405161017a9190612922565b60405180910390f35b61019d600480360381019061019891906123ed565b6104fd565b005b6101b960048036038101906101b4919061247b565b610615565b005b6101d560048036038101906101d09190612255565b6108d5565b005b6101f160048036038101906101ec9190612255565b610935565b005b61020d600480360381019061020891906124fb565b610955565b60405161021a9190612922565b60405180910390f35b61023d600480360381019061023891906121f0565b6109dc565b60405161024a9190612c43565b60405180910390f35b61026d6004803603810190610268919061231f565b610a94565b005b610277610bf4565b604051610284919061293d565b60405180910390f35b610295610c1a565b6040516102a291906129e1565b60405180910390f35b6102c560048036038101906102c091906123b1565b610cac565b005b6102e160048036038101906102dc91906122a4565b610cc2565b005b6102fd60048036038101906102f891906124fb565b610d24565b60405161030a91906129e1565b60405180910390f35b61032d60048036038101906103289190612219565b610e37565b60405161033a91906129c6565b60405180910390f35b60007f80ac58cd000000000000000000000000000000000000000000000000000000007bffffffffffffffffffffffffffffffffffffffffffffffffffffffff1916827bffffffffffffffffffffffffffffffffffffffffffffffffffffffff1916148061040e57507f5b5e139f000000000000000000000000000000000000000000000000000000007bffffffffffffffffffffffffffffffffffffffffffffffffffffffff1916827bffffffffffffffffffffffffffffffffffffffffffffffffffffffff1916145b8061041e575061041d82610ecb565b5b9050919050565b60606000805461043490612df8565b80601f016020809104026020016040519081016040528092919081815260200182805461046090612df8565b80156104ad5780601f10610482576101008083540402835291602001916104ad565b820191906000526020600020905b81548152906001019060200180831161049057829003601f168201915b5050505050905090565b60006104c282610f35565b6004600083815260200190815260200160002060009054906101000a900473ffffffffffffffffffffffffffffffffffffffff169050919050565b600061050882610955565b90508073ffffffffffffffffffffffffffffffffffffffff168373ffffffffffffffffffffffffffffffffffffffff161415610579576040517f08c379a000000000000000000000000000000000000000000000000000000000815260040161057090612bc3565b60405180910390fd5b8073ffffffffffffffffffffffffffffffffffffffff16610598610f80565b73ffffffffffffffffffffffffffffffffffffffff1614806105c757506105c6816105c1610f80565b610e37565b5b610606576040517f08c379a00000000000000000000000000000000000000000000000000000000081526004016105fd90612be3565b60405180910390fd5b6106108383610f88565b505050565b61061d611041565b60008311610660576040517f08c379a000000000000000000000000000000000000000000000000000000000815260040161065790612b23565b60405180910390fd5b60008210158015610672575060018211155b6106b1576040517f08c379a00000000000000000000000000000000000000000000000000000000081526004016106a890612b83565b60405180910390fd5b60006106bd600b611091565b90506106c9600b61109f565b60008467ffffffffffffffff81111561070b577f4e487b7100000000000000000000000000000000000000000000000000000000600052604160045260246000fd5b6040519080825280602002602001820160405280156107395781602001602082028036833780820191505090505b50905060005b8581101561086a5760006107548989886110b5565b905060405180606001604052808281526020013373ffffffffffffffffffffffffffffffffffffffff168152602001861515815250600c60008381526020019081526020016000206000820151816000015560208201518160010160006101000a81548173ffffffffffffffffffffffffffffffffffffffff021916908373ffffffffffffffffffffffffffffffffffffffff16021790555060408201518160010160146101000a81548160ff0219169083151502179055509050508083838151811061084a577f4e487b7100000000000000000000000000000000000000000000000000000000600052603260045260246000fd5b60200260200101818152505050808061086290612e5b565b91505061073f565b5084815114156108c4573373ffffffffffffffffffffffffffffffffffffffff16827f88c55e90330027a4740cd7d2bafb3fc31c21bbaa17745d80b328c53c4916ebf4836040516108bb91906129a4565b60405180910390a35b50506108ce611181565b5050505050565b6108e66108e0610f80565b8261118b565b610925576040517f08c379a000000000000000000000000000000000000000000000000000000000815260040161091c90612a23565b60405180910390fd5b610930838383611220565b505050565b61095083838360405180602001604052806000815250610cc2565b505050565b6000806109618361151a565b9050600073ffffffffffffffffffffffffffffffffffffffff168173ffffffffffffffffffffffffffffffffffffffff1614156109d3576040517f08c379a00000000000000000000000000000000000000000000000000000000081526004016109ca90612ba3565b60405180910390fd5b80915050919050565b60008073ffffffffffffffffffffffffffffffffffffffff168273ffffffffffffffffffffffffffffffffffffffff161415610a4d576040517f08c379a0000000000000000000000000000000000000000000000000000000008152600401610a4490612b03565b60405180910390fd5b600360008373ffffffffffffffffffffffffffffffffffffffff1673ffffffffffffffffffffffffffffffffffffffff168152602001908152602001600020549050919050565b610a9c611041565b60008110158015610aae575060018111155b610aed576040517f08c379a0000000000000000000000000000000000000000000000000000000008152600401610ae490612b83565b60405180910390fd5b6001811415610b4557610b448484848080601f016020809104026020016040519081016040528093929190818152602001838380828437600081840152601f19601f82011690508083019250505050505050611557565b5b3073ffffffffffffffffffffffffffffffffffffffff168673ffffffffffffffffffffffffffffffffffffffff1614610bd857610b82338561118b565b610bc1576040517f08c379a0000000000000000000000000000000000000000000000000000000008152600401610bb890612c03565b60405180910390fd5b610bd3610bcc610f80565b8686611220565b610be4565b610be3868686611220565b5b610bec611181565b505050505050565b600960009054906101000a900473ffffffffffffffffffffffffffffffffffffffff1681565b606060018054610c2990612df8565b80601f0160208091040260200160405190810160405280929190818152602001828054610c5590612df8565b8015610ca25780601f10610c7757610100808354040283529160200191610ca2565b820191906000526020600020905b815481529060010190602001808311610c8557829003601f168201915b5050505050905090565b610cbe610cb7610f80565b83836115cb565b5050565b610cd3610ccd610f80565b8361118b565b610d12576040517f08c379a0000000000000000000000000000000000000000000000000000000008152600401610d0990612a23565b60405180910390fd5b610d1e84848484611738565b50505050565b6060610d2f82610f35565b6000600660008481526020019081526020016000208054610d4f90612df8565b80601f0160208091040260200160405190810160405280929190818152602001828054610d7b90612df8565b8015610dc85780601f10610d9d57610100808354040283529160200191610dc8565b820191906000526020600020905b815481529060010190602001808311610dab57829003601f168201915b505050505090506000610dd9611794565b9050600081511415610def578192505050610e32565b600082511115610e24578082604051602001610e0c9291906128fe565b60405160208183030381529060405292505050610e32565b610e2d846117ab565b925050505b919050565b6000600560008473ffffffffffffffffffffffffffffffffffffffff1673ffffffffffffffffffffffffffffffffffffffff16815260200190815260200160002060008373ffffffffffffffffffffffffffffffffffffffff1673ffffffffffffffffffffffffffffffffffffffff16815260200190815260200160002060009054906101000a900460ff16905092915050565b60007f01ffc9a7000000000000000000000000000000000000000000000000000000007bffffffffffffffffffffffffffffffffffffffffffffffffffffffff1916827bffffffffffffffffffffffffffffffffffffffffffffffffffffffff1916149050919050565b610f3e81611813565b610f7d576040517f08c379a0000000000000000000000000000000000000000000000000000000008152600401610f7490612ba3565b60405180910390fd5b50565b600033905090565b816004600083815260200190815260200160002060006101000a81548173ffffffffffffffffffffffffffffffffffffffff021916908373ffffffffffffffffffffffffffffffffffffffff160217905550808273ffffffffffffffffffffffffffffffffffffffff16610ffb83610955565b73ffffffffffffffffffffffffffffffffffffffff167f8c5be1e5ebec7d5bd14f71427d1e84f3dd0314c0f7b2291e5b200ac8c7c3b92560405160405180910390a45050565b60026008541415611087576040517f08c379a000000000000000000000000000000000000000000000000000000000815260040161107e90612c23565b60405180910390fd5b6002600881905550565b600081600001549050919050565b6001816000016000828254019250508190555050565b6000806110c2600a611091565b90506110ce600a61109f565b6110d83082611854565b60008314156111765760008585905011611127576040517f08c379a000000000000000000000000000000000000000000000000000000000815260040161111e90612ae3565b60405180910390fd5b6111758186868080601f016020809104026020016040519081016040528093929190818152602001838380828437600081840152601f19601f82011690508083019250505050505050611557565b5b809150509392505050565b6001600881905550565b60008061119783610955565b90508073ffffffffffffffffffffffffffffffffffffffff168473ffffffffffffffffffffffffffffffffffffffff1614806111d957506111d88185610e37565b5b8061121757508373ffffffffffffffffffffffffffffffffffffffff166111ff846104b7565b73ffffffffffffffffffffffffffffffffffffffff16145b91505092915050565b8273ffffffffffffffffffffffffffffffffffffffff1661124082610955565b73ffffffffffffffffffffffffffffffffffffffff1614611296576040517f08c379a000000000000000000000000000000000000000000000000000000000815260040161128d90612a63565b60405180910390fd5b600073ffffffffffffffffffffffffffffffffffffffff168273ffffffffffffffffffffffffffffffffffffffff161415611306576040517f08c379a00000000000000000000000000000000000000000000000000000000081526004016112fd90612aa3565b60405180910390fd5b6113138383836001611a72565b8273ffffffffffffffffffffffffffffffffffffffff1661133382610955565b73ffffffffffffffffffffffffffffffffffffffff1614611389576040517f08c379a000000000000000000000000000000000000000000000000000000000815260040161138090612a63565b60405180910390fd5b6004600082815260200190815260200160002060006101000a81549073ffffffffffffffffffffffffffffffffffffffff02191690556001600360008573ffffffffffffffffffffffffffffffffffffffff1673ffffffffffffffffffffffffffffffffffffffff168152602001908152602001600020600082825403925050819055506001600360008473ffffffffffffffffffffffffffffffffffffffff1673ffffffffffffffffffffffffffffffffffffffff16815260200190815260200160002060008282540192505081905550816002600083815260200190815260200160002060006101000a81548173ffffffffffffffffffffffffffffffffffffffff021916908373ffffffffffffffffffffffffffffffffffffffff160217905550808273ffffffffffffffffffffffffffffffffffffffff168473ffffffffffffffffffffffffffffffffffffffff167fddf252ad1be2c89b69c2b068fc378daa952ba7f163c4a11628f55a4df523b3ef60405160405180910390a46115158383836001611b17565b505050565b60006002600083815260200190815260200160002060009054906101000a900473ffffffffffffffffffffffffffffffffffffffff169050919050565b61156082611813565b61159f576040517f08c379a000000000000000000000000000000000000000000000000000000000815260040161159690612b43565b60405180910390fd5b806006600084815260200190815260200160002090805190602001906115c6929190612032565b505050565b8173ffffffffffffffffffffffffffffffffffffffff168373ffffffffffffffffffffffffffffffffffffffff16141561163a576040517f08c379a000000000000000000000000000000000000000000000000000000000815260040161163190612ac3565b60405180910390fd5b80600560008573ffffffffffffffffffffffffffffffffffffffff1673ffffffffffffffffffffffffffffffffffffffff16815260200190815260200160002060008473ffffffffffffffffffffffffffffffffffffffff1673ffffffffffffffffffffffffffffffffffffffff16815260200190815260200160002060006101000a81548160ff0219169083151502179055508173ffffffffffffffffffffffffffffffffffffffff168373ffffffffffffffffffffffffffffffffffffffff167f17307eab39ab6107e8899845ad3d59bd9653f200f220920489ca2b5937696c318360405161172b91906129c6565b60405180910390a3505050565b611743848484611220565b61174f84848484611b1d565b61178e576040517f08c379a000000000000000000000000000000000000000000000000000000000815260040161178590612a43565b60405180910390fd5b50505050565b606060405180602001604052806000815250905090565b60606117b682610f35565b60006117c0611794565b905060008151116117e0576040518060200160405280600081525061180b565b806117ea84611cb4565b6040516020016117fb9291906128fe565b6040516020818303038152906040525b915050919050565b60008073ffffffffffffffffffffffffffffffffffffffff166118358361151a565b73ffffffffffffffffffffffffffffffffffffffff1614159050919050565b600073ffffffffffffffffffffffffffffffffffffffff168273ffffffffffffffffffffffffffffffffffffffff1614156118c4576040517f08c379a00000000000000000000000000000000000000000000000000000000081526004016118bb90612b63565b60405180910390fd5b6118cd81611813565b1561190d576040517f08c379a000000000000000000000000000000000000000000000000000000000815260040161190490612a83565b60405180910390fd5b61191b600083836001611a72565b61192481611813565b15611964576040517f08c379a000000000000000000000000000000000000000000000000000000000815260040161195b90612a83565b60405180910390fd5b6001600360008473ffffffffffffffffffffffffffffffffffffffff1673ffffffffffffffffffffffffffffffffffffffff16815260200190815260200160002060008282540192505081905550816002600083815260200190815260200160002060006101000a81548173ffffffffffffffffffffffffffffffffffffffff021916908373ffffffffffffffffffffffffffffffffffffffff160217905550808273ffffffffffffffffffffffffffffffffffffffff16600073ffffffffffffffffffffffffffffffffffffffff167fddf252ad1be2c89b69c2b068fc378daa952ba7f163c4a11628f55a4df523b3ef60405160405180910390a4611a6e600083836001611b17565b5050565b3073ffffffffffffffffffffffffffffffffffffffff168473ffffffffffffffffffffffffffffffffffffffff1614611b115760011515600c600084815260200190815260200160002060010160149054906101000a900460ff1615151415611b10576040517f08c379a0000000000000000000000000000000000000000000000000000000008152600401611b0790612a03565b60405180910390fd5b5b50505050565b50505050565b6000611b3e8473ffffffffffffffffffffffffffffffffffffffff16611dd8565b15611ca7578373ffffffffffffffffffffffffffffffffffffffff1663150b7a02611b67610f80565b8786866040518563ffffffff1660e01b8152600401611b899493929190612958565b602060405180830381600087803b158015611ba357600080fd5b505af1925050508015611bd457506040513d601f19601f82011682018060405250810190611bd19190612452565b60015b611c57573d8060008114611c04576040519150601f19603f3d011682016040523d82523d6000602084013e611c09565b606091505b50600081511415611c4f576040517f08c379a0000000000000000000000000000000000000000000000000000000008152600401611c4690612a43565b60405180910390fd5b805181602001fd5b63150b7a0260e01b7bffffffffffffffffffffffffffffffffffffffffffffffffffffffff1916817bffffffffffffffffffffffffffffffffffffffffffffffffffffffff191614915050611cac565b600190505b949350505050565b606060006001611cc384611dfb565b01905060008167ffffffffffffffff811115611d08577f4e487b7100000000000000000000000000000000000000000000000000000000600052604160045260246000fd5b6040519080825280601f01601f191660200182016040528015611d3a5781602001600182028036833780820191505090505b509050600082602001820190505b600115611dcd578080600190039150507f3031323334353637383961626364656600000000000000000000000000000000600a86061a8153600a8581611db7577f4e487b7100000000000000000000000000000000000000000000000000000000600052601260045260246000fd5b0494506000851415611dc857611dcd565b611d48565b819350505050919050565b6000808273ffffffffffffffffffffffffffffffffffffffff163b119050919050565b600080600090507a184f03e93ff9f4daa797ed6e38ed64bf6a1f0100000000000000008310611e7f577a184f03e93ff9f4daa797ed6e38ed64bf6a1f0100000000000000008381611e75577f4e487b7100000000000000000000000000000000000000000000000000000000600052601260045260246000fd5b0492506040810190505b6d04ee2d6d415b85acef81000000008310611ee2576d04ee2d6d415b85acef81000000008381611ed8577f4e487b7100000000000000000000000000000000000000000000000000000000600052601260045260246000fd5b0492506020810190505b662386f26fc100008310611f3757662386f26fc100008381611f2d577f4e487b7100000000000000000000000000000000000000000000000000000000600052601260045260246000fd5b0492506010810190505b6305f5e1008310611f86576305f5e1008381611f7c577f4e487b7100000000000000000000000000000000000000000000000000000000600052601260045260246000fd5b0492506008810190505b6127108310611fd1576127108381611fc7577f4e487b7100000000000000000000000000000000000000000000000000000000600052601260045260246000fd5b0492506004810190505b6064831061201a5760648381612010577f4e487b7100000000000000000000000000000000000000000000000000000000600052601260045260246000fd5b0492506002810190505b600a8310612029576001810190505b80915050919050565b82805461203e90612df8565b90600052602060002090601f01602090048101928261206057600085556120a7565b82601f1061207957805160ff19168380011785556120a7565b828001600101855582156120a7579182015b828111156120a657825182559160200191906001019061208b565b5b5090506120b491906120b8565b5090565b5b808211156120d15760008160009055506001016120b9565b5090565b60006120e86120e384612c83565b612c5e565b90508281526020810184848401111561210057600080fd5b61210b848285612db6565b509392505050565b6000813590506121228161337a565b92915050565b60008135905061213781613391565b92915050565b60008135905061214c816133a8565b92915050565b600081519050612161816133a8565b92915050565b600082601f83011261217857600080fd5b81356121888482602086016120d5565b91505092915050565b60008083601f8401126121a357600080fd5b8235905067ffffffffffffffff8111156121bc57600080fd5b6020830191508360018202830111156121d457600080fd5b9250929050565b6000813590506121ea816133bf565b92915050565b60006020828403121561220257600080fd5b600061221084828501612113565b91505092915050565b6000806040838503121561222c57600080fd5b600061223a85828601612113565b925050602061224b85828601612113565b9150509250929050565b60008060006060848603121561226a57600080fd5b600061227886828701612113565b935050602061228986828701612113565b925050604061229a868287016121db565b9150509250925092565b600080600080608085870312156122ba57600080fd5b60006122c887828801612113565b94505060206122d987828801612113565b93505060406122ea878288016121db565b925050606085013567ffffffffffffffff81111561230757600080fd5b61231387828801612167565b91505092959194509250565b60008060008060008060a0878903121561233857600080fd5b600061234689828a01612113565b965050602061235789828a01612113565b955050604061236889828a016121db565b945050606087013567ffffffffffffffff81111561238557600080fd5b61239189828a01612191565b935093505060806123a489828a016121db565b9150509295509295509295565b600080604083850312156123c457600080fd5b60006123d285828601612113565b92505060206123e385828601612128565b9150509250929050565b6000806040838503121561240057600080fd5b600061240e85828601612113565b925050602061241f858286016121db565b9150509250929050565b60006020828403121561243b57600080fd5b60006124498482850161213d565b91505092915050565b60006020828403121561246457600080fd5b600061247284828501612152565b91505092915050565b60008060008060006080868803121561249357600080fd5b600086013567ffffffffffffffff8111156124ad57600080fd5b6124b988828901612191565b955095505060206124cc888289016121db565b93505060406124dd888289016121db565b92505060606124ee88828901612128565b9150509295509295909350565b60006020828403121561250d57600080fd5b600061251b848285016121db565b91505092915050565b600061253083836128e0565b60208301905092915050565b61254581612d42565b82525050565b61255481612d30565b82525050565b600061256582612cc4565b61256f8185612cf2565b935061257a83612cb4565b8060005b838110156125ab5781516125928882612524565b975061259d83612ce5565b92505060018101905061257e565b5085935050505092915050565b6125c181612d54565b82525050565b60006125d282612ccf565b6125dc8185612d03565b93506125ec818560208601612dc5565b6125f581612f31565b840191505092915050565b600061260b82612cda565b6126158185612d14565b9350612625818560208601612dc5565b61262e81612f31565b840191505092915050565b600061264482612cda565b61264e8185612d25565b935061265e818560208601612dc5565b80840191505092915050565b6000612677601d83612d14565b915061268282612f42565b602082019050919050565b600061269a602d83612d14565b91506126a582612f6b565b604082019050919050565b60006126bd603283612d14565b91506126c882612fba565b604082019050919050565b60006126e0602583612d14565b91506126eb82613009565b604082019050919050565b6000612703601c83612d14565b915061270e82613058565b602082019050919050565b6000612726602483612d14565b915061273182613081565b604082019050919050565b6000612749601983612d14565b9150612754826130d0565b602082019050919050565b600061276c601b83612d14565b9150612777826130f9565b602082019050919050565b600061278f602983612d14565b915061279a82613122565b604082019050919050565b60006127b2601083612d14565b91506127bd82613171565b602082019050919050565b60006127d5602e83612d14565b91506127e08261319a565b604082019050919050565b60006127f8602083612d14565b9150612803826131e9565b602082019050919050565b600061281b600d83612d14565b915061282682613212565b602082019050919050565b600061283e601883612d14565b91506128498261323b565b602082019050919050565b6000612861602183612d14565b915061286c82613264565b604082019050919050565b6000612884603d83612d14565b915061288f826132b3565b604082019050919050565b60006128a7603183612d14565b91506128b282613302565b604082019050919050565b60006128ca601f83612d14565b91506128d582613351565b602082019050919050565b6128e981612dac565b82525050565b6128f881612dac565b82525050565b600061290a8285612639565b91506129168284612639565b91508190509392505050565b6000602082019050612937600083018461254b565b92915050565b6000602082019050612952600083018461253c565b92915050565b600060808201905061296d600083018761254b565b61297a602083018661254b565b61298760408301856128ef565b818103606083015261299981846125c7565b905095945050505050565b600060208201905081810360008301526129be818461255a565b905092915050565b60006020820190506129db60008301846125b8565b92915050565b600060208201905081810360008301526129fb8184612600565b905092915050565b60006020820190508181036000830152612a1c8161266a565b9050919050565b60006020820190508181036000830152612a3c8161268d565b9050919050565b60006020820190508181036000830152612a5c816126b0565b9050919050565b60006020820190508181036000830152612a7c816126d3565b9050919050565b60006020820190508181036000830152612a9c816126f6565b9050919050565b60006020820190508181036000830152612abc81612719565b9050919050565b60006020820190508181036000830152612adc8161273c565b9050919050565b60006020820190508181036000830152612afc8161275f565b9050919050565b60006020820190508181036000830152612b1c81612782565b9050919050565b60006020820190508181036000830152612b3c816127a5565b9050919050565b60006020820190508181036000830152612b5c816127c8565b9050919050565b60006020820190508181036000830152612b7c816127eb565b9050919050565b60006020820190508181036000830152612b9c8161280e565b9050919050565b60006020820190508181036000830152612bbc81612831565b9050919050565b60006020820190508181036000830152612bdc81612854565b9050919050565b60006020820190508181036000830152612bfc81612877565b9050919050565b60006020820190508181036000830152612c1c8161289a565b9050919050565b60006020820190508181036000830152612c3c816128bd565b9050919050565b6000602082019050612c5860008301846128ef565b92915050565b6000612c68612c79565b9050612c748282612e2a565b919050565b6000604051905090565b600067ffffffffffffffff821115612c9e57612c9d612f02565b5b612ca782612f31565b9050602081019050919050565b6000819050602082019050919050565b600081519050919050565b600081519050919050565b600081519050919050565b6000602082019050919050565b600082825260208201905092915050565b600082825260208201905092915050565b600082825260208201905092915050565b600081905092915050565b6000612d3b82612d8c565b9050919050565b6000612d4d82612d8c565b9050919050565b60008115159050919050565b60007fffffffff0000000000000000000000000000000000000000000000000000000082169050919050565b600073ffffffffffffffffffffffffffffffffffffffff82169050919050565b6000819050919050565b82818337600083830152505050565b60005b83811015612de3578082015181840152602081019050612dc8565b83811115612df2576000848401525b50505050565b60006002820490506001821680612e1057607f821691505b60208210811415612e2457612e23612ed3565b5b50919050565b612e3382612f31565b810181811067ffffffffffffffff82111715612e5257612e51612f02565b5b80604052505050565b6000612e6682612dac565b91507fffffffffffffffffffffffffffffffffffffffffffffffffffffffffffffffff821415612e9957612e98612ea4565b5b600182019050919050565b7f4e487b7100000000000000000000000000000000000000000000000000000000600052601160045260246000fd5b7f4e487b7100000000000000000000000000000000000000000000000000000000600052602260045260246000fd5b7f4e487b7100000000000000000000000000000000000000000000000000000000600052604160045260246000fd5b6000601f19601f8301169050919050565b7f4e6f7420616c6c6f77656420746f207472616e7366657220746f6b656e000000600082015250565b7f4552433732313a2063616c6c6572206973206e6f7420746f6b656e206f776e6560008201527f72206f7220617070726f76656400000000000000000000000000000000000000602082015250565b7f4552433732313a207472616e7366657220746f206e6f6e20455243373231526560008201527f63656976657220696d706c656d656e7465720000000000000000000000000000602082015250565b7f4552433732313a207472616e736665722066726f6d20696e636f72726563742060008201527f6f776e6572000000000000000000000000000000000000000000000000000000602082015250565b7f4552433732313a20746f6b656e20616c7265616479206d696e74656400000000600082015250565b7f4552433732313a207472616e7366657220746f20746865207a65726f2061646460008201527f7265737300000000000000000000000000000000000000000000000000000000602082015250565b7f4552433732313a20617070726f766520746f2063616c6c657200000000000000600082015250565b7f546f6b656e20555249206d757374206e6f7420626520656d7074790000000000600082015250565b7f4552433732313a2061646472657373207a65726f206973206e6f74206120766160008201527f6c6964206f776e65720000000000000000000000000000000000000000000000602082015250565b7f496e76616c6964207175616e7469747900000000000000000000000000000000600082015250565b7f45524337323155524953746f726167653a2055524920736574206f66206e6f6e60008201527f6578697374656e7420746f6b656e000000000000000000000000000000000000602082015250565b7f4552433732313a206d696e7420746f20746865207a65726f2061646472657373600082015250565b7f496e76616c69642076616c756500000000000000000000000000000000000000600082015250565b7f4552433732313a20696e76616c696420746f6b656e2049440000000000000000600082015250565b7f4552433732313a20617070726f76616c20746f2063757272656e74206f776e6560008201527f7200000000000000000000000000000000000000000000000000000000000000602082015250565b7f4552433732313a20617070726f76652063616c6c6572206973206e6f7420746f60008201527f6b656e206f776e6572206f7220617070726f76656420666f7220616c6c000000602082015250565b7f4552433732313a207472616e736665722063616c6c6572206973206e6f74206f60008201527f776e6572206e6f7220617070726f766564000000000000000000000000000000602082015250565b7f5265656e7472616e637947756172643a207265656e7472616e742063616c6c00600082015250565b61338381612d30565b811461338e57600080fd5b50565b61339a81612d54565b81146133a557600080fd5b50565b6133b181612d60565b81146133bc57600080fd5b50565b6133c881612dac565b81146133d357600080fd5b5056fea26469706673582212203935ee2bceff51f4daf9d5f6fb1409dfe1c4dcf0f9b4a99ffaaff973fdd219b864736f6c63430008040033",
  "linkReferences": {},
  "deployedLinkReferences": {}
}